:020000040800F2
:1000000000000220D5890008258A0008258A0008FA
:10001000258A0008258A0008258A000800000000BB
:10002000000000000000000000000000258A000819
:10003000258A000800000000258A0008AD7E00081F
:10004000258A0008258A0008258A0008258A0008D4
:10005000258A0008258A0008C57E0008258A000830
:10006000258A0008B97E0008258A0008258A00082C
:10007000258A0008258A0008258A0008258A0008A4
:10008000258A0008258A0008258A0008258A000894
:10009000258A0008258A0008258A0008258A000884
:1000A000258A0008258A0008258A0008258A000874
:1000B000258A0008258A0008258A0008258A000864
:1000C000258A0008258A0008258A0008258A000854
:1000D000258A0008258A0008258A0008258A000844
:1000E000258A0008258A0008258A0008258A000834
:1000F000258A0008258A0008258A0008258A000824
:10010000258A0008258A0008258A0008258A000813
:10011000258A0008258A0008258A0008258A000803
:10012000258A0008258A0008258A0008258A0008F3
:10013000258A00080000000000000000258A000851
:10014000258A0008258A0008258A0008258A0008D3
:10015000258A0008258A0008258A0008258A0008C3
:10016000258A0008258A0008258A0008258A0008B3
:10017000258A0008258A0008000000000000000011
:10018000258A0008258A000810B5054C237833B964
:10019000044B13B10448AFF300800123237010BD5A
:1001A000500400200000000044F40008084B10B583
:1001B0001BB108480849AFF300800848036803B939
:1001C00010BD074B002BFBD0BDE81040184700BF07
:1001D0000000000044F40008540400204C040020F7
:1001E0000000000080B485B000AF78600023FB60A1
:1001F0007B68002B01D1012357E07B68022283F842
:1002000035207B681B681B68FB60FA682A4B13402B
:10021000FB607B685A687B689B681A437B68DB6875
:100220001A437B681B691A437B685B691A437B68C6
:100230009B691A437B68DB691A437B681B6A13431B
:10024000FA681343FB607B685B6A042B07D17B6809
:10025000DA6A7B681B6B1343FA681343FB607B68A5
:100260001B68FA681A607B681B685B69FB60FB6847
:1002700023F00703FB607B685B6AFA681343FB604B
:100280007B685B6A042B04D17B689B6AFA68134322
:10029000FB607B681B68FA685A617B680022DA643D
:1002A0007B68012283F83520002318461437BD46A9
:1002B0005DF8047B704700BF3F8014F080B483B0CA
:1002C00000AF78607B68002B02D1012301F0F5B903
:1002D0007B6893F83530DBB2022B02D1012301F0A9
:1002E000ECB97B681B687A681268126822F0010218
:1002F0001A607B681B6800221A607B681B680022FA
:100300005A607B681B6800229A607B681B68002229
:10031000DA607B681B6800221A617B681B682122F7
:100320005A617B681B681A469C4B9A426CD99C4A5E
:100330007B681B6819469B4B994262D07B681B689F
:100340001946994B99425AD07B681B681946974BBE
:10035000994252D07B681B681946954B99424AD006
:100360007B681B681946934B994241D07B681B6898
:100370001946914B994238D07B681B6819468F4BC0
:1003800099422FD07B681B6819468D4B994226D025
:100390007B681B6819468B4B99421DD07B681B6894
:1003A0001946894B994214D07B681B681946874BC4
:1003B00099420BD07B681B681946854B994202D144
:1003C0004FF480231EE04FF080731BE04FF4802336
:1003D00018E04FF4802315E04FF4802312E04FF42F
:1003E00080730FE04FF480730CE04FF4807309E0EA
:1003F0004FF4807306E0774B04E0764B02E0754BD8
:1004000000E0744BD36077E17B681B681A46724B3F
:100410009A426CD9624A7B681B681946614B9942C3
:1004200062D07B681B6819465F4B99425AD07B6843
:100430001B6819465D4B994252D07B681B68194670
:100440005B4B99424AD07B681B681946594B9942CD
:1004500041D07B681B681946574B994238D07B685E
:100460001B681946554B99422FD07B681B6819466B
:10047000534B994226D07B681B681946514B9942D1
:100480001DD07B681B6819464F4B994214D07B687E
:100490001B6819464D4B99420BD07B681B68194667
:1004A0004B4B994202D14FF480231EE04FF08073F2
:1004B0001BE04FF4802318E04FF4802315E04FF445
:1004C000802312E04FF480730FE04FF480730CE050
:1004D0004FF4807309E04FF4807306E03D4B04E075
:1004E0003C4B02E03B4B00E03A4B936004E17B68FD
:1004F0001B681A46394B9A4240F29280384A7B6810
:100500001B681946274B994200F087807B681B685F
:100510001946254B99427ED07B681B681946234BB0
:10052000994276D07B681B681946214B99426ED060
:100530007B681B6819461F4B994265D07B681B6816
:1005400019461D4B99425CD07B681B6819461B4BB2
:10055000994253D07B681B681946194B99424AD07F
:100560007B681B681946174B994241D07B681B6812
:100570001946154B994238D07B681B681946134BB6
:1005800099422FD07B681B681946114B994202D1C2
:100590004FF4802342E04FF080733FE05864024004
:1005A000006402401060024010640240706002402B
:1005B0007064024028600240286402408860024063
:1005C000886402404060024040640240A0600240F3
:1005D000A064024004008000B860024058600240FD
:1005E000006002404FF4802318E04FF4802315E0B0
:1005F0004FF4802312E04FF480730FE04FF48073C8
:100600000CE04FF4807309E04FF4807306E0744B04
:1006100004E0734B02E0724B00E0714BD3606BE07F
:10062000704A7B681B6819466F4B994262D07B68A1
:100630001B6819466D4B99425AD07B681B68194656
:100640006B4B994252D07B681B681946694B9942A3
:100650004AD07B681B681946674B994241D07B683A
:100660001B681946654B994238D07B681B68194650
:10067000634B99422FD07B681B681946614B9942A6
:1006800026D07B681B6819465F4B99421DD07B685A
:100690001B6819465D4B994214D07B681B6819464C
:1006A0005B4B99420BD07B681B681946594B9942AA
:1006B00002D14FF480231EE04FF080731BE04FF413
:1006C000802318E04FF4802315E04FF4802312E0DC
:1006D0004FF480730FE04FF480730CE04FF480739D
:1006E00009E04FF4807306E03D4B04E03C4B02E030
:1006F0003B4B00E03A4B93607B681B681A46464BC5
:100700009A4240F28D80454A7B681B681946364BF9
:10071000994262D07B681B681946344B99425AD083
:100720007B681B681946324B994252D07B681B6824
:100730001946304B99424AD07B681B6819462E4BAC
:10074000994241D07B681B6819462C4B994238D09E
:100750007B681B6819462A4B99422FD07B681B681F
:100760001946284B994226D07B681B681946264BB0
:1007700099421DD07B681B681946244B994214D0BE
:100780007B681B681946224B99420BD07B681B681B
:100790001946204B994202D14FF400131EE04FF04E
:1007A00000631BE04FF4001318E04FF4001315E052
:1007B0004FF4001312E04FF400630FE04FF40063B6
:1007C0000CE04FF4006309E04FF4006306E02023DF
:1007D00004E0202302E0202300E02023D36092E104
:1007E000040080000060024010600240106402407B
:1007F0007060024070640240286002402864024039
:1008000088600240886402404060024040640240C8
:10081000A0600240A06402405864024000640240AC
:100820007B681B681A469F4B9A426CD99E4A7B682C
:100830001B6819469D4B994262D07B681B6819461C
:100840009B4B99425AD07B681B681946994B994239
:1008500052D07B681B681946974B99424AD07B68F7
:100860001B681946954B994241D07B681B68194615
:10087000934B994238D07B681B681946914B99423B
:100880002FD07B681B6819468F4B994226D07B6816
:100890001B6819468D4B99421DD07B681B68194611
:1008A0008B4B994214D07B681B681946894B99423F
:1008B0000BD07B681B681946874B994202D14FF4D5
:1008C00000131EE04FF000631BE04FF4001318E02C
:1008D0004FF4001315E04FF4001312E04FF40063DF
:1008E0000FE04FF400630CE04FF4006309E04FF4B5
:1008F000006306E0202304E0202302E0202300E040
:1009000020239360FFE07B681B681A46734B9A4272
:100910006CD9734A7B681B681946644B994262D054
:100920007B681B681946624B99425AD07B681B68EA
:100930001946604B994252D07B681B6819465E4B42
:1009400099424AD07B681B6819465C4B994241D05A
:100950007B681B6819465A4B994238D07B681B68E4
:100960001946584B99422FD07B681B681946564B45
:10097000994226D07B681B681946544B99421DD07A
:100980007B681B681946524B994214D07B681B68E0
:100990001946504B99420BD07B681B6819464E4B49
:1009A000994202D14FF400131EE04FF000631BE0A8
:1009B0004FF4001318E04FF4001315E04FF4001348
:1009C00012E04FF400630FE04FF400630CE04FF4CB
:1009D000006309E04FF4006306E0202304E02023D5
:1009E00002E0202300E02023D3608CE03C4A7B68B7
:1009F0001B6819462D4B994200F083807B681B6869
:100A000019462B4B99427AD07B681B681946294BB3
:100A1000994272D07B681B681946274B99426AD06D
:100A20007B681B681946254B994261D07B681B681F
:100A30001946234B994258D07B681B681946214BB5
:100A400099424FD07B681B6819461F4B994226D0AC
:100A50007B681B6819461D4B99421DD07B681B683B
:100A600019461B4B994214D07B681B681946194BD9
:100A700099420BD07B681B681946174B994202D1EB
:100A80004FF400133EE04FF000633BE04FF40013DF
:100A900038E04FF4001335E04FF4001332E04FF428
:100AA00000632FE0B8600240006402401060024022
:100AB000106402407060024070640240286002408E
:100AC000286402408860024088640240406002401E
:100AD00040640240A0600240A064024058600240AE
:100AE000006002404FF400630CE04FF4006309E043
:100AF0004FF4006306E0202304E0202302E02023DB
:100B000000E0202393607B681B681A469F4B9A4243
:100B10006CD99F4A7B681B6819469E4B994262D0EC
:100B20007B681B6819469C4B99425AD07B681B68AE
:100B300019469A4B994252D07B681B681946984BCC
:100B400099424AD07B681B681946964B994241D01E
:100B50007B681B681946944B994238D07B681B68A8
:100B60001946924B99422FD07B681B681946904BCF
:100B7000994226D07B681B6819468E4B99421DD03E
:100B80007B681B6819468C4B994214D07B681B68A4
:100B900019468A4B99420BD07B681B681946884BD3
:100BA000994202D14FF400231EE04FF000731BE086
:100BB0004FF4002318E04FF4002315E04FF4002316
:100BC00012E04FF400730FE04FF400730CE04FF4A9
:100BD000007309E04FF4007306E0082304E00823E3
:100BE00002E0082300E00823D36075E17B681B68FE
:100BF0001A46744B9A426CD9654A7B681B68194641
:100C0000644B994262D07B681B681946624B9942DB
:100C10005AD07B681B681946604B994252D07B685A
:100C20001B6819465E4B99424AD07B681B6819467F
:100C30005C4B994241D07B681B6819465A4B9942DC
:100C400038D07B681B681946584B99422FD07B6877
:100C50001B681946564B994226D07B681B6819467B
:100C6000544B99421DD07B681B681946524B9942E0
:100C700014D07B681B681946504B99420BD07B6897
:100C80001B6819464E4B994202D14FF400231EE0D7
:100C90004FF000731BE04FF4002318E04FF40023E3
:100CA00015E04FF4002312E04FF400730FE04FF40F
:100CB00000730CE04FF4007309E04FF4007306E09A
:100CC000082304E0082302E0082300E008239360DF
:100CD00002E17B681B681A463B4B9A4240F29080C7
:100CE0003A4A7B681B6819462A4B994200F0858076
:100CF0007B681B681946284B99427CD07B681B682F
:100D00001946264B994274D07B681B681946244BC0
:100D100099426CD07B681B681946224B994263D07C
:100D20007B681B681946204B99425AD07B681B6828
:100D300019461E4B994251D07B681B6819461C4BC3
:100D4000994248D07B681B6819461A4B99423FD09C
:100D50007B681B681946184B994214D07B681B6846
:100D60001946164B99420BD07B681B681946144BE9
:100D7000994202D14FF4002340E04FF000733DE070
:100D80004FF400233AE04FF4002337E05864024068
:100D90000064024010600240106402407060024033
:100DA000706402402860024028640240886002406B
:100DB000886402404060024040640240A0600240FB
:100DC000A0640240B86002405860024000600240E7
:100DD0004FF4002312E04FF400730FE04FF4007360
:100DE0000CE04FF4007309E04FF4007306E00823B1
:100DF00004E0082302E0082300E00823D3606BE04E
:100E00009E4A7B681B6819469D4B994262D07B685D
:100E10001B6819469B4B99425AD07B681B68194640
:100E2000994B994252D07B681B681946974B99425F
:100E30004AD07B681B681946954B994241D07B6824
:100E40001B681946934B994238D07B681B6819463A
:100E5000914B99422FD07B681B6819468F4B994262
:100E600026D07B681B6819468D4B99421DD07B6844
:100E70001B6819468B4B994214D07B681B68194636
:100E8000894B99420BD07B681B681946874B994266
:100E900002D14FF400231EE04FF000731BE04FF42B
:100EA000002318E04FF4002315E04FF4002312E074
:100EB0004FF400730FE04FF400730CE04FF4007335
:100EC00009E04FF4007306E0082304E0082302E081
:100ED000082300E0082393607B681B681A46744B64
:100EE0009A4268D9734A7B681B681946644B9942D9
:100EF0005ED07B681B681946624B994256D07B686E
:100F00001B681946604B99424ED07B681B68194696
:100F10005E4B994246D07B681B6819465C4B9942F0
:100F20003ED07B681B6819465A4B994236D07B6885
:100F30001B681946584B99422ED07B681B6819468E
:100F4000564B994226D07B681B681946544B9942F0
:100F50001DD07B681B681946524B994214D07B68A0
:100F60001B681946504B99420BD07B681B68194689
:100F70004E4B994202D14FF480331AE04FF4800374
:100F800017E04FF4803314E04FF4803311E04FF456
:100F900080330EE040230CE040230AE0402308E0C9
:100FA000402306E0444B04E0434B02E0424B00E0A8
:100FB000414BD3606AE17B681B681A463F4B9A42FB
:100FC00040F28D803B4A7B681B6819462C4B994246
:100FD00000F082807B681B6819462A4B994279D0C1
:100FE0007B681B681946284B994271D07B681B6847
:100FF0001946264B994269D07B681B681946244BD9
:10100000994261D07B681B681946224B994259D09E
:101010007B681B681946204B994251D07B681B683E
:1010200019461E4B994226D07B681B6819461C4BFB
:1010300099421DD07B681B6819461A4B994214D0FF
:101040007B681B681946184B99420BD07B681B685C
:101050001946164B994202D14FF480333DE04FF4CC
:1010600080033AE04FF4803337E04FF4803334E0CC
:101070004FF4803331E040232FE000BF0060024096
:1010800010600240106402407060024070640240D0
:101090002860024028640240886002408864024060
:1010A0004060024040640240A0600240A0640240F0
:1010B000586402400064024001008000B8600240B1
:1010C00040230AE0402308E0402306E0994B04E077
:1010D000984B02E0974B00E0964B9360D6E07B681C
:1010E0001B681A46944B9A4268D9944A7B681B68DD
:1010F0001946934B99425ED07B681B681946914B09
:10110000994256D07B681B6819468F4B99424ED046
:101110007B681B6819468D4B994246D07B681B68DB
:1011200019468B4B99423ED07B681B681946894B08
:10113000994236D07B681B681946874B99422ED05E
:101140007B681B681946854B994226D07B681B68D3
:101150001946834B99421DD07B681B681946814B09
:10116000994214D07B681B6819467F4B99420BD07B
:101170007B681B6819467D4B994202D14FF480333E
:101180001AE04FF4800317E04FF4803314E04FF47B
:10119000803311E04FF480330EE040230CE0402315
:1011A0000AE0402308E0402306E0624B04E0614B84
:1011B00002E0604B00E05F4BD36067E05F4A7B6812
:1011C0001B6819465E4B99425ED07B681B681946C6
:1011D0005C4B994256D07B681B6819465A4B994222
:1011E0004ED07B681B681946584B994246D07B68A5
:1011F0001B681946564B99423ED07B681B681946BE
:10120000544B994236D07B681B681946524B994221
:101210002ED07B681B681946504B994226D07B68BC
:101220001B6819464E4B99421DD07B681B681946B6
:101230004C4B994214D07B681B6819464A4B994223
:101240000BD07B681B681946484B994202D14FF47A
:1012500080331AE04FF4800317E04FF4803314E03A
:101260004FF4803311E04FF480330EE040230CE064
:1012700040230AE0402308E0402306E02D4B04E031
:101280002C4B02E02B4B00E02A4B93607B681B68E1
:101290001A46374B9A4240F29080364A7B681B6868
:1012A0001946274B994200F085807B681B681946D8
:1012B000244B99427CD07B681B681946224B99428B
:1012C00074D07B681B681946204B99426CD07B68B0
:1012D0001B6819461E4B994263D07B681B681946F0
:1012E0001C4B99425AD07B681B6819461A4B99428D
:1012F00051D07B681B681946184B994248D07B68CF
:101300001B681946164B99423FD07B681B681946EB
:10131000144B994236D07B681B681946124B994290
:101320002DD07B681B681946104B994224D14FF48D
:10133000801340E0010080005860024000600240DD
:10134000106002401064024070600240706402400D
:10135000286002402864024088600240886402409D
:101360004060024040640240A0600240A06402402D
:1013700058640240006402404FF080631BE04FF469
:10138000801318E04FF4801315E04FF4801312E03F
:101390004FF480630FE04FF480630CE04FF4806300
:1013A00009E04FF4806306E0102304E0102302E01C
:1013B000102300E01023D36073E17B681B681A469A
:1013C0009F4B9A426CD99F4A7B681B6819469E4B7B
:1013D000994262D07B681B6819469C4B99425AD04F
:1013E0007B681B6819469A4B994252D07B681B68F0
:1013F0001946984B99424AD07B681B681946964B10
:10140000994241D07B681B681946944B994238D069
:101410007B681B681946924B99422FD07B681B68EA
:101420001946904B994226D07B681B6819468E4B13
:1014300099421DD07B681B6819468C4B994214D089
:101440007B681B6819468A4B99420BD07B681B68E6
:101450001946884B994202D14FF480131EE04FF099
:1014600080631BE04FF4801318E04FF4801315E005
:101470004FF4801312E04FF480630FE04FF4806369
:101480000CE04FF4806309E04FF4806306E0102322
:1014900004E0102302E0102300E01023936000E139
:1014A0007B681B681A46744B9A426CD9734A7B68F6
:1014B0001B681946644B994262D07B681B681946C9
:1014C000624B99425AD07B681B681946604B99421F
:1014D00052D07B681B6819465E4B99424AD07B68A4
:1014E0001B6819465C4B994241D07B681B681946C2
:1014F0005A4B994238D07B681B681946584B994221
:101500002FD07B681B681946564B994226D07B68C2
:101510001B681946544B99421DD07B681B681946BD
:10152000524B994214D07B681B681946504B994224
:101530000BD07B681B6819464E4B994202D14FF481
:1015400080131EE04FF080631BE04FF4801318E01F
:101550004FF4801315E04FF4801312E04FF48063D2
:101560000FE04FF480630CE04FF4806309E04FF428
:10157000806306E0102304E0102302E0102300E063
:101580001023D3608DE03D4A7B681B6819462E4BC3
:10159000994200F084807B681B6819462B4B994266
:1015A0007BD07B681B681946294B994273D07B68B6
:1015B0001B681946274B99426BD07B681B681946FC
:1015C000254B994262D07B681B681946234B994290
:1015D00059D07B681B681946214B994250D07B68D3
:1015E0001B6819461F4B994226D07B681B68194619
:1015F0001D4B99421DD07B681B6819461B4B9942B5
:1016000014D07B681B681946194B99420BD07B6834
:101610001B681946174B994202D14FF480133FE0E3
:101620004FF080633CE04FF4801339E04FF48013B7
:1016300036E04FF4801333E04FF4806330E000BFB6
:10164000B860024000640240106002401064024032
:1016500070600240706402402860024028640240CA
:10166000886002408864024040600240406402405A
:10167000A0600240A0640240586002400060024046
:101680004FF480630CE04FF4806309E04FF4806313
:1016900006E0102304E0102302E0102300E01023F2
:1016A00093607B680022DA647B68002283F835202F
:1016B0007B68002283F83420002318460C37BD468F
:1016C0005DF8047B704700BF80B584B000AFF86060
:1016D000B9607A603B60FB6893F83430012B01D12C
:1016E00002231EE0FB68012283F83420FB680222FB
:1016F00083F83520FB681B68FA681268126822F0CC
:1017000001021A60F868B9687A683B6806F0A8FBBD
:10171000FB681B68FA681268126842F001021A60DE
:10172000002318461037BD4680BD00BF80B584B089
:1017300000AFF860B9607A603B60FB6893F83430C2
:10174000012B01D1022346E0FB68012283F83420FB
:10175000FB68022283F83520FB681B68FA68126870
:10176000126822F001021A60F868B9687A683B686A
:1017700006F076FBFB681B68FA681268126842F094
:1017800010021A60FB681B68FA681268126842F05F
:1017900008021A60FB681B68FA681268126842F057
:1017A00004021A60FB681B68FA681268526942F00A
:1017B00080025A61FB681B68FA681268126842F07E
:1017C00002021A60FB681B68FA681268126842F02D
:1017D00001021A60002318461037BD4680BD00BFC5
:1017E00080B584B000AF78600023FB607B681B6825
:1017F0007A681268126822F001021A6007F048FA4B
:10180000F86017E007F044FA0246FB68D31AB3F514
:101810007A7F0FD97B68DB6C43F020027B68DA6447
:101820007B68002283F834207B68032283F835200C
:1018300003230FE07B681B681B6803F00103002B88
:10184000E0D17B68002283F834207B68012283F892
:101850003520002318461037BD4680BD80B58AB0BC
:1018600000AFF860B9607A6000233B62BB68002B70
:101870006BD1FB681B681A46A04B9A4262D0FB688A
:101880001B681A469E4B9A425AD0FB681B681A4640
:101890009C4B9A4252D0FB681B681A469A4B9A425C
:1018A0004AD0FB681B681A46984B9A4241D0FB68A5
:1018B0001B681A46964B9A4238D0FB681B681A463A
:1018C000944B9A422FD0FB681B681A46924B9A425F
:1018D00026D0FB681B681A46904B9A421DD0FB68C5
:1018E0001B681A468E4B9A4214D0FB681B681A4636
:1018F0008C4B9A420BD0FB681B681A468A4B9A4263
:1019000002D14FF400131EE04FF000631BE04FF4D0
:10191000001318E04FF4001315E04FF4001312E029
:101920004FF400630FE04FF400630CE04FF40063EA
:1019300009E04FF4006306E0202304E0202302E0E6
:10194000202300E020237B626AE0FB681B681A46C4
:101950006A4B9A4262D0FB681B681A46684B9A42EF
:101960005AD0FB681B681A46664B9A4252D0FB68F5
:101970001B681A46644B9A424AD0FB681B681A4699
:10198000624B9A4241D0FB681B681A46604B9A42F0
:1019900038D0FB681B681A465E4B9A422FD0FB6812
:1019A0001B681A465C4B9A4226D0FB681B681A4695
:1019B0005A4B9A421DD0FB681B681A46584B9A42F4
:1019C00014D0FB681B681A46564B9A420BD0FB6832
:1019D0001B681A46544B9A4202D14FF480131EE002
:1019E0004FF080631BE04FF4801318E04FF4801336
:1019F00015E04FF4801312E04FF480630FE04FF4D2
:101A000080630CE04FF4806309E04FF4806306E0EC
:101A1000102304E0102302E0102300E010237B6277
:101A200007F036F9386201F013BCFB681B681A46F0
:101A30003E4B9A4240F28A803D4B5A68FB681B68D5
:101A400019462E4B99427ED0FB681B6819462C4BD9
:101A5000994276D0FB681B6819462A4B99426ED092
:101A6000FB681B681946284B994266D0FB681B68C7
:101A70001946264B99425DD0FB681B681946244BDA
:101A8000994238D0FB681B681946224B99422FD0E7
:101A9000FB681B681946204B994226D0FB681B68DF
:101AA00019461E4B99421DD0FB681B6819461C4BFA
:101AB000994214D0FB681B6819461A4B99420BD007
:101AC000FB681B681946184B994202D14FF400235A
:101AD0003AE04FF0007337E04FF4002334E04FF466
:101AE000002331E04FF400232EE04FF400732BE08D
:101AF0004FF4007328E04FF4007325E010600240BB
:101B0000106402407060024070640240286002402D
:101B100028640240886002408864024040600240BD
:101B200040640240A0600240A06402405864024049
:101B3000006402404FF4007306E0082304E0082329
:101B400002E0082300E00823134075E1FB681B68EE
:101B50001A469F4B9A426DD99E4B1A68FB681B68C8
:101B600019469D4B994262D0FB681B6819469B4BF6
:101B700099425AD0FB681B681946994B994252D03A
:101B8000FB681B681946974B99424AD0FB681B6853
:101B90001946954B994241D0FB681B681946934BF7
:101BA000994238D0FB681B681946914B99422FD057
:101BB000FB681B6819468F4B994226D0FB681B684F
:101BC00019468D4B99421DD0FB681B6819468B4BFB
:101BD000994214D0FB681B681946894B99420BD077
:101BE000FB681B681946874B994202D14FF40023CA
:101BF0001EE04FF000731BE04FF4002318E04FF499
:101C0000002315E04FF4002312E04FF400730FE0BF
:101C10004FF400730CE04FF4007309E04FF40073CD
:101C200006E0082304E0082302E0082300E008237C
:101C3000134001E1FB681B681A46734B9A426DD949
:101C4000724B5A68FB681B681946634B994262D015
:101C5000FB681B681946614B99425AD0FB681B68A8
:101C600019465F4B994252D0FB681B6819465D4B81
:101C700099424AD0FB681B6819465B4B994241D098
:101C8000FB681B681946594B994238D0FB681B68A2
:101C90001946574B99422FD0FB681B681946554B84
:101CA000994226D0FB681B681946534B99421DD0B8
:101CB000FB681B681946514B994214D0FB681B689E
:101CC00019464F4B99420BD0FB681B6819464D4B88
:101CD000994202D14FF400231EE04FF000731BE045
:101CE0004FF4002318E04FF4002315E04FF40023D5
:101CF00012E04FF400730FE04FF400730CE04FF468
:101D0000007309E04FF4007306E0082304E00823A1
:101D100002E0082300E0082313408DE03B4B1A68E3
:101D2000FB681B6819462C4B994200F08380FB68C6
:101D30001B681946294B99427AD0FB681B681946E3
:101D4000274B994272D0FB681B681946254B994274
:101D50006AD0FB681B681946234B994261D0FB6827
:101D60001B681946214B994258D0FB681B681946DD
:101D70001F4B99424FD0FB681B6819461D4B994277
:101D800046D0FB681B6819461B4B99421DD0FB6867
:101D90001B681946194B994214D0FB681B681946F9
:101DA000174B99420BD0FB681B681946154B99429B
:101DB00002D14FF400233EE04FF000733BE04FF4BC
:101DC000002338E04FF4002335E04FF4002332E0E5
:101DD000B86002400064024010600240106402409B
:101DE0007060024070640240286002402864024033
:101DF00088600240886402404060024040640240C3
:101E0000A0600240A06402405860024000600240AE
:101E10004FF400730FE04FF400730CE04FF40073C5
:101E200009E04FF4007306E0082304E0082302E011
:101E3000082300E008231340FB61FB681B681A4677
:101E40009B4B9A4269D99B4B5A68FB681B681946A1
:101E5000994B99425ED0FB681B681946974B994293
:101E600056D0FB681B681946954B99424ED0FB68CB
:101E70001B681946934B994246D0FB681B6819466C
:101E8000914B99423ED0FB681B6819468F4B994293
:101E900036D0FB681B6819468D4B99422ED0FB68E3
:101EA0001B6819468B4B994226D0FB681B68194664
:101EB000894B99421DD0FB681B681946874B994294
:101EC00014D0FB681B681946854B99420BD0FB6800
:101ED0001B681946834B994202D14FF480331AE0B4
:101EE0004FF4800317E04FF4803314E04FF4803355
:101EF00011E04FF480330EE040230CE040230AE071
:101F0000402308E0402306E0774B04E0764B02E0F4
:101F1000754B00E0744B13406EE1FB681B681A467A
:101F2000724B9A4269D9634B1A68FB681B68194661
:101F3000614B99425ED0FB681B6819465F4B994222
:101F400056D0FB681B6819465D4B99424ED0FB6822
:101F50001B6819465B4B994246D0FB681B681946C3
:101F6000594B99423ED0FB681B681946574B994222
:101F700036D0FB681B681946554B99422ED0FB683A
:101F80001B681946534B994226D0FB681B681946BB
:101F9000514B99421DD0FB681B6819464F4B994223
:101FA00014D0FB681B6819464D4B99420BD0FB6857
:101FB0001B6819464B4B994202D14FF480331AE00B
:101FC0004FF4800317E04FF4803314E04FF4803374
:101FD00011E04FF480330EE040230CE040230AE090
:101FE000402308E0402306E03F4B04E03E4B02E084
:101FF0003D4B00E03C4B1340FEE0FB681B681A467B
:102000003B4B9A4240F28F803A4B5A68FB681B6800
:102010001946294B994200F08380FB681B681946DA
:10202000264B99427AD0FB681B681946244B99428B
:1020300072D0FB681B681946224B99426AD0FB6834
:102040001B681946204B994262D0FB681B681946F1
:102050001E4B99425AD0FB681B6819461C4B99428B
:1020600052D0FB681B6819461A4B99424AD0FB684C
:102070001B681946184B994241D0FB681B681946EA
:10208000164B994238D0FB681B681946144B99428D
:102090000BD0FB681B681946124B994202D14FF4D2
:1020A00080333EE04FF480033BE04FF4803338E070
:1020B0005864024000640240106002401064024014
:1020C0007060024070640240286002402864024050
:1020D00088600240886402404060024040640240E0
:1020E000A0600240A064024001008000B86002408D
:1020F00058600240006002404FF4803311E04FF41A
:1021000080330EE040230CE040230AE0402308E047
:10211000402306E0734B04E0724B02E0714B00E099
:10212000704B134068E0704B1A68FB681B681946D7
:102130006E4B99425ED0FB681B6819466C4B994206
:1021400056D0FB681B6819466A4B99424ED0FB6813
:102150001B681946684B994246D0FB681B681946B4
:10216000664B99423ED0FB681B681946644B994206
:1021700036D0FB681B681946624B99422ED0FB682B
:102180001B681946604B994226D0FB681B681946AC
:102190005E4B99421DD0FB681B6819465C4B994207
:1021A00014D0FB681B6819465A4B99420BD0FB6848
:1021B0001B681946584B994202D14FF480331AE0FC
:1021C0004FF4800317E04FF4803314E04FF4803372
:1021D00011E04FF480330EE040230CE040230AE08E
:1021E000402308E0402306E03E4B04E03D4B02E084
:1021F0003C4B00E03B4B1340BB61FB681B681A463D
:10220000464B9A4240F29080454B5A68FB681B68E7
:102210001946364B994262D0FB681B681946344B0D
:1022200099425AD0FB681B681946324B994252D0EA
:10223000FB681B681946304B99424AD0FB681B6803
:1022400019462E4B994241D0FB681B6819462C4B0E
:10225000994238D0FB681B6819462A4B99422FD007
:10226000FB681B681946284B994226D0FB681B68FF
:102270001946264B99421DD0FB681B681946244B12
:10228000994214D0FB681B681946224B99420BD027
:10229000FB681B681946204B994202D14FF48023FA
:1022A0001EE04FF080731BE04FF4802318E04FF4E2
:1022B000802315E04FF4802312E04FF480730FE089
:1022C0004FF480730CE04FF4807309E04FF4807397
:1022D00006E0144B04E0134B02E0124B00E0114BFC
:1022E000134099E10100800000600240106002404C
:1022F0001064024070600240706402402860024036
:1023000028640240886002408864024040600240C5
:1023100040640240A0600240A06402405864024051
:102320000064024004008000FB681B681A469C4B56
:102330009A426DD99B4B1A68FB681B6819469A4BE9
:10234000994262D0FB681B681946984B99425AD053
:10235000FB681B681946964B994252D0FB681B6874
:102360001946944B99424AD0FB681B681946924B18
:10237000994241D0FB681B681946904B994238D06E
:10238000FB681B6819468E4B99422FD0FB681B686F
:1023900019468C4B994226D0FB681B6819468A4B1C
:1023A00099421DD0FB681B681946884B994214D08E
:1023B000FB681B681946864B99420BD0FB681B686B
:1023C0001946844B994202D14FF480231EE04FF00E
:1023D00080731BE04FF4802318E04FF4802315E056
:1023E0004FF4802312E04FF480730FE04FF48073BA
:1023F0000CE04FF4807309E04FF4807306E0764BF5
:1024000004E0754B02E0744B00E0734B134003E1B2
:10241000FB681B681A46714B9A426DD9704B5A681B
:10242000FB681B681946604B994262D0FB681B68C9
:1024300019465E4B99425AD0FB681B6819465C4BA3
:10244000994252D0FB681B6819465A4B99424AD0B0
:10245000FB681B681946584B994241D0FB681B68C2
:102460001946564B994238D0FB681B681946544BA5
:1024700099422FD0FB681B681946524B994226D0CF
:10248000FB681B681946504B99421DD0FB681B68BE
:1024900019464E4B994214D0FB681B6819464C4BA9
:1024A00099420BD0FB681B6819464A4B994202D1EE
:1024B0004FF480231EE04FF080731BE04FF4802325
:1024C00018E04FF4802315E04FF4802312E04FF41E
:1024D00080730FE04FF480730CE04FF4807309E0D9
:1024E0004FF4807306E03C4B04E03B4B02E03A4B78
:1024F00000E0394B13408FE0394B1A68FB681B68CA
:102500001946294B994200F08580FB681B681946E3
:10251000264B99427CD0FB681B681946244B994294
:1025200074D0FB681B681946224B99426CD0FB683B
:102530001B681946204B994263D0FB681B681946FB
:102540001E4B99425AD0FB681B6819461C4B994296
:1025500051D0FB681B6819461A4B994248D0FB685A
:102560001B681946184B99423FD0FB681B681946F7
:10257000164B994236D0FB681B681946144B99429A
:102580000BD0FB681B681946124B994202D14FF4DD
:10259000802340E04FF080733DE04FF480233AE029
:1025A000B8600240006402401060024010640240C3
:1025B000706002407064024028600240286402405B
:1025C00088600240886402404060024040640240EB
:1025D000A0600240A06402400400800058600240F5
:1025E000006002404FF4802315E04FF4802312E096
:1025F0004FF480730FE04FF480730CE04FF480735E
:1026000009E04FF4807306E0814B04E0804B02E068
:102610007F4B00E07E4B13407B61FB69002B06D1B2
:10262000BB69002B03D17B69002B00F0F185FB69AE
:10263000002B00F0EC81FB68DB6C43F00102FB68CF
:10264000DA64FB681B681A46724B9A426CD9724A6C
:10265000FB681B681946714B994262D0FB681B6886
:1026600019466F4B99425AD0FB681B6819466D4B4F
:10267000994252D0FB681B6819466B4B99424AD06D
:10268000FB681B681946694B994241D0FB681B687F
:102690001946674B994238D0FB681B681946654B51
:1026A00099422FD0FB681B681946634B994226D08C
:1026B000FB681B681946614B99421DD0FB681B687B
:1026C00019465F4B994214D0FB681B6819465D4B55
:1026D00099420BD0FB681B6819465B4B994202D1AB
:1026E0004FF400231EE04FF000731BE04FF4002373
:1026F00018E04FF4002315E04FF4002312E04FF4EC
:1027000000730FE04FF400730CE04FF4007309E026
:102710004FF4007306E0082304E0082302E00823D6
:1027200000E00823D36072E1FB681B681A46474B40
:102730009A4240F28D80384AFB681B681946374B35
:10274000994262D0FB681B681946354B99425AD0B2
:10275000FB681B681946334B994252D0FB681B68D3
:102760001946314B99424AD0FB681B6819462F4BDA
:10277000994241D0FB681B6819462D4B994238D0CD
:10278000FB681B6819462B4B99422FD0FB681B68CE
:102790001946294B994226D0FB681B681946274BDE
:1027A00099421DD0FB681B681946254B994214D0ED
:1027B000FB681B681946234B99420BD0FB681B68CA
:1027C0001946214B994202D14FF400231EE04FF0ED
:1027D00000731BE04FF4002318E04FF4002315E0D2
:1027E0004FF4002312E04FF400730FE04FF4007336
:1027F0000CE04FF4007309E04FF4007306E0082387
:1028000004E0082302E0082300E008239360FEE0D0
:1028100004008000586402400064024010600240DE
:102820001064024070600240706402402860024000
:102830002864024088600240886402404060024090
:1028400040640240A0600240A0640240B8600240C0
:10285000FB681B681A469F4B9A426CD99E4AFB68DC
:102860001B6819469D4B994262D0FB681B6819464C
:102870009B4B99425AD0FB681B681946994B994269
:1028800052D0FB681B681946974B99424AD0FB68A7
:102890001B681946954B994241D0FB681B68194645
:1028A000934B994238D0FB681B681946914B99426B
:1028B0002FD0FB681B6819468F4B994226D0FB68C6
:1028C0001B6819468D4B99421DD0FB681B68194641
:1028D0008B4B994214D0FB681B681946894B99426F
:1028E0000BD0FB681B681946874B994202D14FF405
:1028F00000231EE04FF000731BE04FF4002318E0AC
:102900004FF4002315E04FF4002312E04FF400735E
:102910000FE04FF400730CE04FF4007309E04FF444
:10292000007306E0082304E0082302E0082300E027
:102930000823D3606BE0684AFB681B681946674B45
:10294000994262D0FB681B681946654B99425AD080
:10295000FB681B681946634B994252D0FB681B68A1
:102960001946614B99424AD0FB681B6819465F4B78
:10297000994241D0FB681B6819465D4B994238D09B
:10298000FB681B6819465B4B99422FD0FB681B689C
:102990001946594B994226D0FB681B681946574B7C
:1029A00099421DD0FB681B681946554B994214D0BB
:1029B000FB681B681946534B99420BD0FB681B6898
:1029C0001946514B994202D14FF400231EE04FF0BB
:1029D00000731BE04FF4002318E04FF4002315E0D0
:1029E0004FF4002312E04FF400730FE04FF4007334
:1029F0000CE04FF4007309E04FF4007306E0082385
:102A000004E0082302E0082300E008239360BB6988
:102A1000002B00F0FF81FB68DB6C43F00202FB68D7
:102A2000DA64FB681B681A46384B9A4240F2898088
:102A3000374AFB681B681946284B99427ED0FB68D1
:102A40001B681946264B994276D0FB681B681946CD
:102A5000244B99426ED0FB681B681946224B994261
:102A600066D0FB681B681946204B99425ED0FB6814
:102A70001B6819461E4B994256D0FB681B681946C5
:102A80001C4B99424ED0FB681B6819461A4B994261
:102A900046D0FB681B681946184B99423DD0FB682D
:102AA0001B681946164B994234D0FB681B681946BF
:102AB000144B99420BD0FB681B681946124B994284
:102AC00002D14FF480333AE04FF4800337E04FF403
:102AD000803334E0586002400060024010600240E1
:102AE000106402407060024070640240286002403E
:102AF00028640240886002408864024040600240CE
:102B000040640240A0600240A06402405864024059
:102B1000006402404FF4803311E04FF480330EE044
:102B200040230CE040230AE0402308E0402306E075
:102B3000994B04E0984B02E0974B00E0964BD36032
:102B400068E1FB681B681A46944B9A4268D9944A1C
:102B5000FB681B681946934B99425ED0FB681B6863
:102B60001946914B994256D0FB681B6819468F4B0A
:102B700099424ED0FB681B6819468D4B994246D04E
:102B8000FB681B6819468B4B99423ED0FB681B685B
:102B90001946894B994236D0FB681B681946874B0A
:102BA00099422ED0FB681B681946854B994226D066
:102BB000FB681B681946834B99421DD0FB681B6854
:102BC0001946814B994214D0FB681B6819467F4B0C
:102BD00099420BD0FB681B6819467D4B994202D184
:102BE0004FF480331AE04FF4800317E04FF4803342
:102BF00014E04FF4803311E04FF480330EE04023B3
:102C00000CE040230AE0402308E0402306E0624B4A
:102C100004E0614B02E0604B00E05F4B9360F9E041
:102C2000FB681B681A466B4B9A4268D96A4AFB6874
:102C30001B6819465B4B99425ED0FB681B681946BE
:102C4000594B994256D0FB681B681946574B99421D
:102C50004ED0FB681B681946554B994246D0FB681D
:102C60001B681946534B99423ED0FB681B681946B6
:102C7000514B994236D0FB681B6819464F4B99421D
:102C80002ED0FB681B6819464D4B994226D0FB6835
:102C90001B6819464B4B99421DD0FB681B681946AF
:102CA000494B994214D0FB681B681946474B99421F
:102CB0000BD0FB681B681946454B994202D14FF473
:102CC00080331AE04FF4800317E04FF4803314E0B0
:102CD0004FF4803311E04FF480330EE040230CE0DA
:102CE00040230AE0402308E0402306E02A4B04E0AA
:102CF000294B02E0284B00E0274BD3608AE0364A9C
:102D0000FB681B681946274B994200F08180FB68DD
:102D10001B681946244B994278D0FB681B681946FA
:102D2000224B994270D0FB681B681946204B994290
:102D300068D0FB681B6819461E4B994260D0FB683F
:102D40001B6819461C4B994258D0FB681B681946F2
:102D50001A4B994250D0FB681B681946184B994290
:102D600048D0FB681B681946164B99423FD0FB6858
:102D70001B681946144B994236D0FB681B681946EC
:102D8000124B99422DD0FB681B681946104B994293
:102D900024D14FF480333CE001008000B860024051
:102DA0000064024010600240106402407060024003
:102DB000706402402860024028640240886002403B
:102DC000886402404060024040640240A0600240CB
:102DD000A064024058600240006002404FF480034B
:102DE00017E04FF4803314E04FF4803311E04FF4D8
:102DF00080330EE040230CE040230AE0402308E04B
:102E0000402306E07C4B04E07B4B02E07A4B00E081
:102E1000794B93607B69002B00F0EF81FB68DB6CE2
:102E200043F00402FB68DA64FB681B681A46734BC4
:102E30009A426CD9724AFB681B681946714B9942D9
:102E400062D0FB681B6819466F4B99425AD0FB68E9
:102E50001B6819466D4B994252D0FB681B68194696
:102E60006B4B99424AD0FB681B681946694B9942E3
:102E700041D0FB681B681946674B994238D0FB6804
:102E80001B681946654B99422FD0FB681B68194691
:102E9000634B994226D0FB681B681946614B9942E7
:102EA0001DD0FB681B6819465F4B994214D0FB6824
:102EB0001B6819465D4B99420BD0FB681B6819468D
:102EC0005B4B994202D14FF480231EE04FF0807398
:102ED0001BE04FF4802318E04FF4802315E04FF4FB
:102EE000802312E04FF480730FE04FF480730CE006
:102EF0004FF4807309E04FF4807306E04D4B04E01B
:102F00004C4B02E04B4B00E04A4BD36075E1FB6851
:102F10001B681A46484B9A4240F29080384AFB6838
:102F20001B681946374B994262D0FB681B681946EB
:102F3000354B99425AD0FB681B681946334B99426E
:102F400052D0FB681B681946314B99424AD0FB6846
:102F50001B6819462F4B994241D0FB681B681946E4
:102F60002D4B994238D0FB681B6819462B4B994270
:102F70002FD0FB681B681946294B994226D0FB6865
:102F80001B681946274B99421DD0FB681B681946E0
:102F9000254B994214D0FB681B681946234B994274
:102FA0000BD0FB681B681946214B994202D14FF4A4
:102FB00080231EE04FF080731BE04FF4802318E065
:102FC0004FF4802315E04FF4802312E04FF4807318
:102FD0000FE04FF480730CE04FF4807309E04FF47E
:102FE000807306E0134B04E0124B02E0114B00E04B
:102FF000104B936001E100BF010080005864024063
:1030000000640240106002401064024070600240A0
:1030100070640240286002402864024088600240D8
:10302000886402404060024040640240A060024068
:10303000A064024004008000B8600240FB681B6886
:103040001A469B4B9A426CD99A4AFB681B681946F0
:10305000994B994262D0FB681B681946974B99427D
:103060005AD0FB681B681946954B994252D0FB68B1
:103070001B681946934B99424AD0FB681B68194656
:10308000914B994241D0FB681B6819468F4B99427E
:1030900038D0FB681B6819468D4B99422FD0FB68CE
:1030A0001B6819468B4B994226D0FB681B68194652
:1030B000894B99421DD0FB681B681946874B994282
:1030C00014D0FB681B681946854B99420BD0FB68EE
:1030D0001B681946834B994202D14FF480231EE0AE
:1030E0004FF080731BE04FF4802318E04FF48023EF
:1030F00015E04FF4802312E04FF480730FE04FF49B
:1031000080730CE04FF4807309E04FF4807306E0A5
:10311000754B04E0744B02E0734B00E0724BD360DC
:103120006BE0644AFB681B681946634B994262D0A6
:10313000FB681B681946614B99425AD0FB681B68B3
:1031400019465F4B994252D0FB681B6819465D4B8C
:1031500099424AD0FB681B6819465B4B994241D0A3
:10316000FB681B681946594B994238D0FB681B68AD
:103170001946574B99422FD0FB681B681946554B8F
:10318000994226D0FB681B681946534B99421DD0C3
:10319000FB681B681946514B994214D0FB681B68A9
:1031A00019464F4B99420BD0FB681B6819464D4B93
:1031B000994202D14FF480231EE04FF080731BE050
:1031C0004FF4802318E04FF4802315E04FF4802360
:1031D00012E04FF480730FE04FF480730CE04FF473
:1031E000807309E04FF4807306E03F4B04E03E4BF0
:1031F00002E03D4B00E03C4B9360FB68042283F807
:103200003520FB68002283F83420012301F08BBCB9
:103210007B68B3F1FF3F1BD07B68002B07D005F024
:1032200037FD02463B6AD21A7B689A4210D9FB6886
:10323000DB6C43F02002FB68DA64FB68032283F84E
:103240003520FB68002283F83420032301F06BBC97
:10325000FB681B681A46254B9A4209D9244B5A68C9
:103260007B6A1340002B0CBF01230023DBB24CE030
:10327000FB681B681A461F4B9A4209D91C4B1A68F7
:103280007B6A1340002B0CBF01230023DBB23CE020
:10329000FB681B681A46064B9A422DD9054B5A68A3
:1032A0007B6A1340002B0CBF01230023DBB22CE010
:1032B000586002400060024010600240106402400A
:1032C000706002407064024028600240286402403E
:1032D00088600240886402404060024040640240CE
:1032E000A0600240A06402400400800058640240D4
:1032F00000640240B86002407F4B1A687B6A13404A
:10330000002B0CBF01230023DBB2002B7EF48DAB1E
:10331000BB68002B40F0ED87FB681B681B6803F45B
:103320008023002B00F00A84FB681B681A46734B4D
:103330009A426CD9724AFB681B681946714B9942D4
:1033400062D0FB681B6819466F4B99425AD0FB68E4
:103350001B6819466D4B994252D0FB681B68194691
:103360006B4B99424AD0FB681B681946694B9942DE
:1033700041D0FB681B681946674B994238D0FB68FF
:103380001B681946654B99422FD0FB681B6819468C
:10339000634B994226D0FB681B681946614B9942E2
:1033A0001DD0FB681B6819465F4B994214D0FB681F
:1033B0001B6819465D4B99420BD0FB681B68194688
:1033C0005B4B994202D14FF480131EE04FF08063B3
:1033D0001BE04FF4801318E04FF4801315E04FF416
:1033E000801312E04FF480630FE04FF480630CE031
:1033F0004FF4806309E04FF4806306E0102304E09B
:10340000102302E0102300E01023D36073E1FB6877
:103410001B681A46474B9A4240F28E80384AFB6836
:103420001B681946374B994262D0FB681B681946E6
:10343000354B99425AD0FB681B681946334B994269
:1034400052D0FB681B681946314B99424AD0FB6841
:103450001B6819462F4B994241D0FB681B681946DF
:103460002D4B994238D0FB681B6819462B4B99426B
:103470002FD0FB681B681946294B994226D0FB6860
:103480001B681946274B99421DD0FB681B681946DB
:10349000254B994214D0FB681B681946234B99426F
:1034A0000BD0FB681B681946214B994202D14FF49F
:1034B00080131EE04FF080631BE04FF4801318E090
:1034C0004FF4801315E04FF4801312E04FF4806343
:1034D0000FE04FF480630CE04FF4806309E04FF499
:1034E000806306E0102304E0102302E0102300E0D4
:1034F00010239360FFE000BF006002405864024068
:10350000006402401060024010640240706002409B
:1035100070640240286002402864024088600240D3
:10352000886402404060024040640240A060024063
:10353000A0640240B8600240FB681B681A46A14BB9
:103540009A426CD9A04AFB681B6819469F4B994266
:1035500062D0FB681B6819469D4B99425AD0FB68A4
:103560001B6819469B4B994252D0FB681B68194651
:10357000994B99424AD0FB681B681946974B994270
:1035800041D0FB681B681946954B994238D0FB68BF
:103590001B681946934B99422FD0FB681B6819464C
:1035A000914B994226D0FB681B6819468F4B994274
:1035B0001DD0FB681B6819468D4B994214D0FB68DF
:1035C0001B6819468B4B99420BD0FB681B68194648
:1035D000894B994202D14FF480131EE04FF0806373
:1035E0001BE04FF4801318E04FF4801315E04FF404
:1035F000801312E04FF480630FE04FF480630CE01F
:103600004FF4806309E04FF4806306E0102304E088
:10361000102302E0102300E01023D3606BE06A4A1D
:10362000FB681B681946694B994262D0FB681B68AE
:103630001946674B99425AD0FB681B681946654B7F
:10364000994252D0FB681B681946634B99424AD095
:10365000FB681B681946614B994241D0FB681B68A7
:1036600019465F4B994238D0FB681B6819465D4B81
:1036700099422FD0FB681B6819465B4B994226D0B4
:10368000FB681B681946594B99421DD0FB681B68A3
:103690001946574B994214D0FB681B681946554B85
:1036A00099420BD0FB681B681946534B994202D1D3
:1036B0004FF480131EE04FF080631BE04FF4801343
:1036C00018E04FF4801315E04FF4801312E04FF42C
:1036D00080630FE04FF480630CE04FF4806309E0F7
:1036E0004FF4806306E0102304E0102302E010236F
:1036F00000E010239360FB681B681A463F4B9A4218
:1037000040F28F803E4AFB681B6819462F4B994256
:1037100000F08480FB681B6819462D4B99427BD0D2
:10372000FB681B6819462B4B994273D0FB681B68DA
:103730001946294B99426BD0FB681B681946274BE9
:10374000994262D0FB681B681946254B994259D0B3
:10375000FB681B681946234B99422FD0FB681B68F6
:103760001946214B994226D0FB681B6819461F4B0E
:1037700099421DD0FB681B6819461D4B994214D015
:10378000FB681B6819461B4B99420BD0FB681B68F2
:103790001946194B994202D14FF400133FE04FF004
:1037A00000633CE04FF4001339E04FF4001336E0BF
:1037B0004FF4001333E04FF4006330E04FF4006344
:1037C0002DE000BF586002400060024010600240DF
:1037D0001064024070600240706402402860024041
:1037E00028640240886002408864024040600240D1
:1037F00040640240A0600240A0640240586402405D
:10380000006402404FF4006309E04FF4006306E0F7
:10381000202304E0202302E0202300E02023D360C3
:1038200073E1FB681B681A469F4B9A426CD99F4A0A
:10383000FB681B6819469E4B994262D0FB681B6867
:1038400019469C4B99425AD0FB681B6819469A4B03
:10385000994252D0FB681B681946984B99424AD04E
:10386000FB681B681946964B994241D0FB681B6860
:103870001946944B994238D0FB681B681946924B05
:1038800099422FD0FB681B681946904B994226D06D
:10389000FB681B6819468E4B99421DD0FB681B685C
:1038A00019468C4B994214D0FB681B6819468A4B09
:1038B00099420BD0FB681B681946884B994202D18C
:1038C0004FF400131EE04FF000631BE04FF40013B1
:1038D00018E04FF4001315E04FF4001312E04FF41A
:1038E00000630FE04FF400630CE04FF4006309E065
:1038F0004FF4006306E0202304E0202302E02023AD
:1039000000E02023936000E1FB681B681A46744BBB
:103910009A426CD9734AFB681B681946644B9942FA
:1039200062D0FB681B681946624B99425AD0FB680B
:103930001B681946604B994252D0FB681B681946B8
:103940005E4B99424AD0FB681B6819465C4B994212
:1039500041D0FB681B6819465A4B994238D0FB6826
:103960001B681946584B99422FD0FB681B681946B3
:10397000564B994226D0FB681B681946544B994216
:103980001DD0FB681B681946524B994214D0FB6846
:103990001B681946504B99420BD0FB681B681946AF
:1039A0004E4B994202D14FF400131EE04FF00063DA
:1039B0001BE04FF4001318E04FF4001315E04FF430
:1039C000001312E04FF400630FE04FF400630CE0CB
:1039D0004FF4006309E04FF4006306E0202304E0A5
:1039E000202302E0202300E02023D3608DE03D4A25
:1039F000FB681B6819462E4B994200F08480FB68D7
:103A00001B6819462B4B99427BD0FB681B681946F3
:103A1000294B994273D0FB681B681946274B994282
:103A20006BD0FB681B681946254B994262D0FB6836
:103A30001B681946234B994259D0FB681B681946ED
:103A4000214B994250D0FB681B6819461F4B994285
:103A500026D0FB681B6819461D4B99421DD0FB6898
:103A60001B6819461B4B994214D0FB681B6819460A
:103A7000194B99420BD0FB681B681946174B9942AA
:103A800002D14FF400133FE04FF000633CE04FF4ED
:103A9000001339E04FF4001336E04FF4001333E025
:103AA0004FF4006330E000BFB860024000640240A1
:103AB0001060024010640240706002407064024076
:103AC0002860024028640240886002408864024006
:103AD0004060024040640240A0600240A064024096
:103AE00058600240006002404FF400630CE04FF465
:103AF000006309E04FF4006306E0202304E0202384
:103B000002E0202300E020239360FB681B681B6811
:103B100003F40023002B04D1FB68112283F8352025
:103B2000E1E3FB681B681B6803F40023002B00F033
:103B3000DA83FB68212283F83520D4E3FB681B6815
:103B40001A46A04B9A426CD99F4AFB681B681946DB
:103B50009E4B994262D0FB681B6819469C4B994268
:103B60005AD0FB681B6819469A4B994252D0FB68A1
:103B70001B681946984B99424AD0FB681B68194646
:103B8000964B994241D0FB681B681946944B994269
:103B900038D0FB681B681946924B99422FD0FB68BE
:103BA0001B681946904B994226D0FB681B68194642
:103BB0008E4B99421DD0FB681B6819468C4B99426D
:103BC00014D0FB681B6819468A4B99420BD0FB68DE
:103BD0001B681946884B994202D14FF480131EE0AE
:103BE0004FF080631BE04FF4801318E04FF4801314
:103BF00015E04FF4801312E04FF480630FE04FF4B0
:103C000080630CE04FF4806309E04FF4806306E0CA
:103C1000102304E0102302E0102300E01023D360FF
:103C200076E1FB681B681A46744B9A426CD9664A67
:103C3000FB681B681946654B994262D0FB681B689C
:103C40001946634B99425AD0FB681B681946614B71
:103C5000994252D0FB681B6819465F4B99424AD083
:103C6000FB681B6819465D4B994241D0FB681B6895
:103C700019465B4B994238D0FB681B681946594B73
:103C800099422FD0FB681B681946574B994226D0A2
:103C9000FB681B681946554B99421DD0FB681B6891
:103CA0001946534B994214D0FB681B681946514B77
:103CB00099420BD0FB681B6819464F4B994202D1C1
:103CC0004FF480131EE04FF080631BE04FF480132D
:103CD00018E04FF4801315E04FF4801312E04FF416
:103CE00080630FE04FF480630CE04FF4806309E0E1
:103CF0004FF4806306E0102304E0102302E0102359
:103D000000E01023936003E1FB681B681A463C4BFC
:103D10009A4240F291803B4AFB681B6819462B4B44
:103D2000994200F08680FB681B681946284B99422F
:103D30007DD0FB681B681946264B994275D0FB68FD
:103D40001B681946244B99426DD0FB681B681946C5
:103D5000224B994264D0FB681B681946204B99425C
:103D60005BD0FB681B6819461E4B994252D0FB681A
:103D70001B6819461C4B994249D0FB681B681946C1
:103D80001A4B994240D0FB681B681946184B994260
:103D900014D0FB681B681946164B99420BD0FB6880
:103DA0001B681946144B994202D14FF4801341E02D
:103DB0004FF080633EE04FF480133BE04FF48013FC
:103DC00038E000BF586402400064024010600240C6
:103DD000106402407060024070640240286002403B
:103DE00028640240886002408864024040600240CB
:103DF00040640240A0600240A0640240B8600240FB
:103E000058600240006002404FF4801312E04FF40B
:103E100080630FE04FF480630CE04FF4806309E0AF
:103E20004FF4806306E0102304E0102302E0102327
:103E300000E01023D3606BE0A04AFB681B681946C2
:103E40009F4B994262D0FB681B6819469D4B994273
:103E50005AD0FB681B6819469B4B994252D0FB68AD
:103E60001B681946994B99424AD0FB681B68194652
:103E7000974B994241D0FB681B681946954B994274
:103E800038D0FB681B681946934B99422FD0FB68CA
:103E90001B681946914B994226D0FB681B6819464E
:103EA0008F4B99421DD0FB681B6819468D4B994278
:103EB00014D0FB681B6819468B4B99420BD0FB68EA
:103EC0001B681946894B994202D14FF480131EE0BA
:103ED0004FF080631BE04FF4801318E04FF4801321
:103EE00015E04FF4801312E04FF480630FE04FF4BD
:103EF00080630CE04FF4806309E04FF4806306E0D8
:103F0000102304E0102302E0102300E0102393604C
:103F1000FB681B681A46764B9A426CD9754AFB6857
:103F20001B681946664B994262D0FB681B681946AC
:103F3000644B99425AD0FB681B681946624B994200
:103F400052D0FB681B681946604B99424AD0FB6807
:103F50001B6819465E4B994241D0FB681B681946A5
:103F60005C4B994238D0FB681B6819465A4B994202
:103F70002FD0FB681B681946584B994226D0FB6826
:103F80001B681946564B99421DD0FB681B681946A1
:103F9000544B994214D0FB681B681946524B994206
:103FA0000BD0FB681B681946504B994202D14FF465
:103FB00000131EE04FF000631BE04FF4001318E005
:103FC0004FF4001315E04FF4001312E04FF40063B8
:103FD0000FE04FF400630CE04FF4006309E04FF48E
:103FE000006306E0202304E0202302E0202300E019
:103FF0002023D36073E1FB681B681A463E4B9A424C
:1040000040F28E803B4AFB681B6819462C4B994254
:1040100000F08380FB681B6819462A4B99427AD0CE
:10402000FB681B681946284B994272D0FB681B68D5
:104030001946264B99426AD0FB681B681946244BE7
:10404000994261D0FB681B681946224B994258D0AF
:10405000FB681B681946204B99424FD0FB681B68D0
:1040600019461E4B994226D0FB681B6819461C4B0B
:1040700099421DD0FB681B6819461A4B994214D00F
:10408000FB681B681946184B99420BD0FB681B68EC
:104090001946164B994202D14FF400133EE04FF0FF
:1040A00000633BE04FF4001338E04FF4001335E0B9
:1040B0004FF4001332E04FF400632FE00060024041
:1040C0001060024010640240706002407064024060
:1040D00028600240286402408860024088640240F0
:1040E0004060024040640240A0600240A064024080
:1040F0005864024000640240B86002404FF400631C
:104100000CE04FF4006309E04FF4006306E0202365
:1041100004E0202302E0202300E020239360DEE07F
:10412000FB681B681A46A14B9A426CD9A04AFB68EF
:104130001B6819469F4B994262D0FB681B68194661
:104140009D4B99425AD0FB681B6819469B4B99427C
:1041500052D0FB681B681946994B99424AD0FB68BC
:104160001B681946974B994241D0FB681B6819465A
:10417000954B994238D0FB681B681946934B99427E
:104180002FD0FB681B681946914B994226D0FB68DB
:104190001B6819468F4B99421DD0FB681B68194656
:1041A0008D4B994214D0FB681B6819468B4B994282
:1041B0000BD0FB681B681946894B994202D14FF41A
:1041C00000131EE04FF000631BE04FF4001318E0F3
:1041D0004FF4001315E04FF4001312E04FF40063A6
:1041E0000FE04FF400630CE04FF4006309E04FF47C
:1041F000006306E0202304E0202302E0202300E007
:104200002023D3606BE06A4AFB681B681946694B40
:10421000994262D0FB681B681946674B99425AD095
:10422000FB681B681946654B994252D0FB681B68B6
:104230001946634B99424AD0FB681B681946614B8B
:10424000994241D0FB681B6819465F4B994238D0B0
:10425000FB681B6819465D4B99422FD0FB681B68B1
:1042600019465B4B994226D0FB681B681946594B8F
:1042700099421DD0FB681B681946574B994214D0D0
:10428000FB681B681946554B99420BD0FB681B68AD
:104290001946534B994202D14FF400131EE04FF0E0
:1042A00000631BE04FF4001318E04FF4001315E017
:1042B0004FF4001312E04FF400630FE04FF400637B
:1042C0000CE04FF4006309E04FF4006306E02023A4
:1042D00004E0202302E0202300E020239360FB6819
:1042E000112283F83520FB68002283F8342000F087
:1042F00019BCFB681B681B6803F48023002B00F0CB
:104300002382FB681B681A46364B9A4240F28F8024
:10431000354AFB681B681946264B994200F0848099
:10432000FB681B681946244B99427BD0FB681B68CD
:104330001946224B994273D0FB681B681946204BE3
:1043400099426BD0FB681B6819461E4B994262D09C
:10435000FB681B6819461C4B994259D0FB681B68C7
:1043600019461A4B994250D0FB681B681946184BE6
:10437000994247D0FB681B681946164B99423ED0BC
:10438000FB681B681946144B994235D0FB681B68C3
:104390001946124B99422CD0FB681B681946104BEA
:1043A000994223D14FF480133FE000BF5860024090
:1043B00000600240106002401064024070600240E1
:1043C0007064024028600240286402408860024015
:1043D000886402404060024040640240A0600240A5
:1043E000A064024058640240006402404FF08063C1
:1043F0001BE04FF4801318E04FF4801315E04FF4E6
:10440000801312E04FF480630FE04FF480630CE000
:104410004FF4806309E04FF4806306E0102304E06A
:10442000102302E0102300E01023D36073E1FB6847
:104430001B681A469F4B9A426CD99F4AFB681B68BF
:1044400019469E4B994262D0FB681B6819469C4BEB
:1044500099425AD0FB681B6819469A4B994252D030
:10446000FB681B681946984B99424AD0FB681B6849
:104470001946964B994241D0FB681B681946944BEC
:10448000994238D0FB681B681946924B99422FD04D
:10449000FB681B681946904B994226D0FB681B6845
:1044A00019468E4B99421DD0FB681B6819468C4BF0
:1044B000994214D0FB681B6819468A4B99420BD06D
:1044C000FB681B681946884B994202D14FF4801350
:1044D0001EE04FF080631BE04FF4801318E04FF4B0
:1044E000801315E04FF4801312E04FF480630FE067
:1044F0004FF480630CE04FF4806309E04FF4806375
:1045000006E0102304E0102302E0102300E0102353
:10451000936000E1FB681B681A46744B9A426CD9A1
:10452000734AFB681B681946644B994262D0FB686A
:104530001B681946624B99425AD0FB681B681946A2
:10454000604B994252D0FB681B6819465E4B9942FA
:104550004AD0FB681B6819465C4B994241D0FB6806
:104560001B6819465A4B994238D0FB681B6819469C
:10457000584B99422FD0FB681B681946564B9942FD
:1045800026D0FB681B681946544B99421DD0FB6826
:104590001B681946524B994214D0FB681B68194698
:1045A000504B99420BD0FB681B6819464E4B994201
:1045B00002D14FF480131EE04FF080631BE04FF4F4
:1045C000801318E04FF4801315E04FF4801312E0CD
:1045D0004FF480630FE04FF480630CE04FF480638E
:1045E00009E04FF4806306E0102304E0102302E0AA
:1045F000102300E01023D3608DE03D4AFB681B6868
:1046000019462E4B994200F08480FB681B681946BE
:104610002B4B99427BD0FB681B681946294B99426A
:1046200073D0FB681B681946274B99426BD0FB6817
:104630001B681946254B994262D0FB681B681946D6
:10464000234B994259D0FB681B681946214B99426C
:1046500050D0FB681B6819461F4B994226D0FB6857
:104660001B6819461D4B99421DD0FB681B681946F3
:104670001B4B994214D0FB681B681946194B994291
:104680000BD0FB681B681946174B994202D14FF4B7
:1046900080133FE04FF080633CE04FF4801339E03B
:1046A0004FF4801336E04FF4801333E04FF480630F
:1046B00030E000BFB8600240006402401060024079
:1046C0001064024070600240706402402860024042
:1046D00028640240886002408864024040600240D2
:1046E00040640240A0600240A06402405860024062
:1046F000006002404FF480630CE04FF4806309E0F7
:104700004FF4806306E0102304E0102302E010233E
:1047100000E010239360FB681B681B6803F4002310
:10472000002B04D1FB68312283F83520FAE1FB68C5
:104730001B681B6803F40023002B00F0F381FB6867
:10474000412283F83520EDE1FB681B681A46A04B37
:104750009A426CD99F4AFB681B6819469E4B994246
:1047600062D0FB681B6819469C4B99425AD0FB6883
:104770001B6819469A4B994252D0FB681B68194630
:10478000984B99424AD0FB681B681946964B994250
:1047900041D0FB681B681946944B994238D0FB689E
:1047A0001B681946924B99422FD0FB681B6819462B
:1047B000904B994226D0FB681B6819468E4B994254
:1047C0001DD0FB681B6819468C4B994214D0FB68BE
:1047D0001B6819468A4B99420BD0FB681B68194627
:1047E000884B994202D14FF480131EE04FF0806352
:1047F0001BE04FF4801318E04FF4801315E04FF4E2
:10480000801312E04FF480630FE04FF480630CE0FC
:104810004FF4806309E04FF4806306E0102304E066
:10482000102302E0102300E01023D36076E1FB6840
:104830001B681A46744B9A426CD9664AFB681B681F
:104840001946654B994262D0FB681B681946634B59
:1048500099425AD0FB681B681946614B994252D065
:10486000FB681B6819465F4B99424AD0FB681B687E
:1048700019465D4B994241D0FB681B6819465B4B5A
:10488000994238D0FB681B681946594B99422FD082
:10489000FB681B681946574B994226D0FB681B687A
:1048A0001946554B99421DD0FB681B681946534B5E
:1048B000994214D0FB681B681946514B99420BD0A2
:1048C000FB681B6819464F4B994202D14FF4801385
:1048D0001EE04FF080631BE04FF4801318E04FF4AC
:1048E000801315E04FF4801312E04FF480630FE063
:1048F0004FF480630CE04FF4806309E04FF4806371
:1049000006E0102304E0102302E0102300E010234F
:10491000936003E1FB681B681A463C4B9A4240F2E5
:1049200091803B4AFB681B6819462B4B994200F06B
:104930008680FB681B681946284B99427DD0FB682E
:104940001B681946264B994275D0FB681B681946AF
:10495000244B99426DD0FB681B681946224B994243
:1049600064D0FB681B681946204B99425BD0FB68FA
:104970001B6819461E4B994252D0FB681B681946AA
:104980001C4B994249D0FB681B6819461A4B994247
:1049900040D0FB681B681946184B994214D0FB683D
:1049A0001B681946164B99420BD0FB681B681946C9
:1049B000144B994202D14FF4801341E04FF08063D1
:1049C0003EE04FF480133BE04FF4801338E000BF2B
:1049D00058640240006402401060024010640240CB
:1049E0007060024070640240286002402864024007
:1049F0008860024088640240406002404064024097
:104A0000A0600240A0640240B860024058600240CA
:104A1000006002404FF4801312E04FF480630FE017
:104A20004FF480630CE04FF4806309E04FF480633F
:104A300006E0102304E0102302E0102300E010231E
:104A4000D3606BE03A4AFB681B681946394B9942C0
:104A500062D0FB681B681946374B99425AD0FB68F5
:104A60001B681946354B994252D0FB681B681946A2
:104A7000334B99424AD0FB681B681946314B994227
:104A800041D0FB681B6819462F4B994238D0FB6810
:104A90001B6819462D4B99422FD0FB681B6819469D
:104AA0002B4B994226D0FB681B681946294B99422B
:104AB0001DD0FB681B681946274B994214D0FB6830
:104AC0001B681946254B99420BD0FB681B68194699
:104AD000234B994202D14FF480131EE04FF08063C4
:104AE0001BE04FF4801318E04FF4801315E04FF4EF
:104AF000801312E04FF480630FE04FF480630CE00A
:104B00004FF4806309E04FF4806306E0102304E073
:104B1000102302E0102300E010239360FB68312291
:104B200083F83520002318462837BD4680BD00BFD6
:104B30000060024010600240106402407060024059
:104B4000706402402860024028640240886002408D
:104B5000886402404060024040640240A06002401D
:104B6000A064024080B582B000AF78607B681B68AB
:104B70001A46784B9A4272D9774B5A687B681B6801
:104B80001946764B994262D07B681B681946744B74
:104B900099425AD07B681B681946724B994252D091
:104BA0007B681B681946704B99424AD07B681B682A
:104BB00019466E4B994241D07B681B6819466C4B75
:104BC000994238D07B681B6819466A4B99422FD0AE
:104BD0007B681B681946684B994226D07B681B6826
:104BE0001946664B99421DD07B681B681946644B79
:104BF000994214D07B681B681946624B99420BD0CE
:104C00007B681B681946604B994202D14FF4002320
:104C10001EE04FF000731BE04FF4002318E04FF448
:104C2000002315E04FF4002312E04FF400730FE06F
:104C30004FF400730CE04FF4007309E04FF400737D
:104C400006E0082304E0082302E0082300E008232C
:104C50001340002B14BF01230023DBB29FE17B68CC
:104C60001B681A46494B9A4240F292803A4B1A68A6
:104C70007B681B681946394B994262D07B681B6878
:104C80001946374B99425AD07B681B681946354BF9
:104C9000994252D07B681B681946334B99424AD0DF
:104CA0007B681B681946314B994241D07B681B6871
:104CB00019462F4B994238D07B681B6819462D4BFB
:104CC00099422FD07B681B6819462B4B994226D0FE
:104CD0007B681B681946294B99421DD07B681B686D
:104CE0001946274B994214D07B681B681946254BFF
:104CF00099420BD07B681B681946234B994202D11D
:104D00004FF400231EE04FF000731BE04FF400232C
:104D100018E04FF4002315E04FF4002312E04FF4A5
:104D200000730FE04FF400730CE04FF4007309E0E0
:104D30004FF4007306E0082304E0082302E0082390
:104D400000E008231340002B14BF01230023DBB233
:104D500025E100BF58640240006402401060024038
:104D6000106402407060024070640240286002409B
:104D7000286402408860024088640240406002402B
:104D800040640240A0600240A0640240B86002405B
:104D90007B681B681A46704B9A4272D96F4B5A68EF
:104DA0007B681B6819466E4B994262D07B681B6812
:104DB00019466C4B99425AD07B681B6819466A4B5E
:104DC000994252D07B681B681946684B99424AD079
:104DD0007B681B681946664B994241D07B681B680B
:104DE0001946644B994238D07B681B681946624B60
:104DF00099422FD07B681B681946604B994226D098
:104E00007B681B6819465E4B99421DD07B681B6806
:104E100019465C4B994214D07B681B6819465A4B63
:104E200099420BD07B681B681946584B994202D1B6
:104E30004FF400231EE04FF000731BE04FF40023FB
:104E400018E04FF4002315E04FF4002312E04FF474
:104E500000730FE04FF400730CE04FF4007309E0AF
:104E60004FF4007306E0082304E0082302E008235F
:104E700000E008231340002B14BF01230023DBB202
:104E80008DE0364B1A687B681B681946344B994293
:104E90007ED07B681B681946324B99425AD07B689A
:104EA0001B681946304B994252D07B681B681946E3
:104EB0002E4B99424AD07B681B6819462C4B99426D
:104EC00041D07B681B6819462A4B994238D07B68D1
:104ED0001B681946284B99422FD07B681B681946DE
:104EE000264B994226D07B681B681946244B994271
:104EF0001DD07B681B681946224B994214D07B68F1
:104F00001B681946204B99420BD07B681B681946D9
:104F10001E4B994202D14FF400233AE04FF0007348
:104F200037E04FF4002334E04FF4002331E04FF436
:104F300000232EE04FF400732BE04FF4007328E0C1
:104F40004FF4007325E04FF4007322E0082320E0C3
:104F500008231EE008231CE0586002400060024065
:104F600010600240106402407060024070640240B1
:104F70002860024028640240886002408864024041
:104F80004060024040640240A0600240A0640240D1
:104F900008231340002B14BF01230023DBB2002B96
:104FA00000F010827B681B681B6803F00403002B71
:104FB00000F008827B681B687A681268126822F029
:104FC00004021A607B681B681A46A04B9A426CD98F
:104FD0009F4A7B681B6819469E4B994262D07B684A
:104FE0001B6819469C4B99425AD07B681B6819462E
:104FF0009A4B994252D07B681B681946984B99424C
:105000004AD07B681B681946964B994241D07B6811
:105010001B681946944B994238D07B681B68194627
:10502000924B99422FD07B681B681946904B99424E
:1050300026D07B681B6819468E4B99421DD07B6831
:105040001B6819468C4B994214D07B681B68194623
:105050008A4B99420BD07B681B681946884B994252
:1050600002D14FF400231EE04FF000731BE04FF419
:10507000002318E04FF4002315E04FF4002312E062
:105080004FF400730FE04FF400730CE04FF4007323
:1050900009E04FF4007306E0082304E0082302E06F
:1050A000082300E00823D36076E17B681B681A467A
:1050B000744B9A426CD9664A7B681B681946654BEB
:1050C000994262D07B681B681946634B99425AD05B
:1050D0007B681B681946614B994252D07B681B68FC
:1050E00019465F4B99424AD07B681B6819465D4B55
:1050F000994241D07B681B6819465B4B994238D076
:105100007B681B681946594B99422FD07B681B68F6
:105110001946574B994226D07B681B681946554B58
:1051200099421DD07B681B681946534B994214D095
:105130007B681B681946514B99420BD07B681B68F2
:1051400019464F4B994202D14FF400231EE04FF015
:1051500000731BE04FF4002318E04FF4002315E028
:105160004FF4002312E04FF400730FE04FF400738C
:105170000CE04FF4007309E04FF4007306E00823DD
:1051800004E0082302E0082300E00823936003E121
:105190007B681B681A463C4B9A4240F291803B4A1E
:1051A0007B681B6819462B4B994200F086807B6810
:1051B0001B681946284B99427DD07B681B681946AD
:1051C000264B994275D07B681B681946244B99423F
:1051D0006DD07B681B681946224B994264D07B686E
:1051E0001B681946204B99425BD07B681B681946A7
:1051F0001E4B994252D07B681B6819461C4B994242
:1052000049D07B681B6819461A4B994240D07B688D
:105210001B681946184B994214D07B681B681946C5
:10522000164B99420BD07B681B681946144B994268
:1052300002D14FF4002341E04FF000733EE04FF401
:1052400000233BE04FF4002338E000BF58640240E5
:10525000006402401060024010640240706002402E
:105260007064024028600240286402408860024066
:10527000886402404060024040640240A0600240F6
:10528000A0640240B86002405860024000600240E2
:105290004FF4002312E04FF400730FE04FF400735B
:1052A0000CE04FF4007309E04FF4007306E00823AC
:1052B00004E0082302E0082300E00823D3606BE049
:1052C0007B4A7B681B6819467A4B994262D07B689F
:1052D0001B681946784B99425AD07B681B6819465F
:1052E000764B994252D07B681B681946744B9942A1
:1052F0004AD07B681B681946724B994241D07B6843
:105300001B681946704B994238D07B681B68194658
:105310006E4B99422FD07B681B6819466C4B9942A3
:1053200026D07B681B6819466A4B99421DD07B6862
:105330001B681946684B994214D07B681B68194654
:10534000664B99420BD07B681B681946644B9942A7
:1053500002D14FF400231EE04FF000731BE04FF426
:10536000002318E04FF4002315E04FF4002312E06F
:105370004FF400730FE04FF400730CE04FF4007330
:1053800009E04FF4007306E0082304E0082302E07C
:10539000082300E0082393607B68DB6C43F0010284
:1053A0007B68DA647B68042283F835207B680022FE
:1053B00083F834207B689B6C002B03D07B689B6C4C
:1053C000786898477B681B681A46464B9A4240F2B9
:1053D0008F80454B5A687B681B681946354B99424C
:1053E0005ED07B681B681946334B994256D07B6868
:1053F0001B681946314B99424ED07B681B68194691
:105400002F4B994246D07B681B6819462D4B994219
:105410003ED07B681B6819462B4B994236D07B687F
:105420001B681946294B99422ED07B681B68194688
:10543000274B994226D07B681B681946254B994219
:105440001DD07B681B681946234B994214D07B689A
:105450001B681946214B99420BD07B681B68194683
:105460001F4B994202D14FF480331AE04FF480036E
:1054700017E04FF4803314E04FF4803311E04FF421
:1054800080330EE040230CE040230AE0402308E094
:10549000402306E0154B04E0144B02E0134B00E000
:1054A000124B1340002B14BF01230023DBB29AE1FF
:1054B00000600240106002401064024070600240D0
:1054C0007064024028600240286402408860024004
:1054D000886402404060024040640240A060024094
:1054E000A064024058640240006402400100800051
:1054F0007B681B681A469A4B9A426ED9994B1A6878
:105500007B681B681946984B99425ED07B681B6884
:105510001946964B994256D07B681B681946944BA6
:1055200099424ED07B681B681946924B994246D0EF
:105530007B681B681946904B99423ED07B681B687C
:1055400019468E4B994236D07B681B6819468C4BA6
:1055500099422ED07B681B6819468A4B994226D007
:105560007B681B681946884B99421DD07B681B6875
:105570001946864B994214D07B681B681946844BA8
:1055800099420BD07B681B681946824B994202D125
:105590004FF480331AE04FF4800317E04FF4803368
:1055A00014E04FF4803311E04FF480330EE04023D9
:1055B0000CE040230AE0402308E0402306E0764B5D
:1055C00004E0754B02E0744B00E0734B1340002B7A
:1055D00014BF01230023DBB205E17B681B681A4678
:1055E0006E4B9A426ED96E4B5A687B681B6819469F
:1055F0005D4B99425ED07B681B6819465B4B9942B4
:1056000056D07B681B681946594B99424ED07B682F
:105610001B681946574B994246D07B681B68194650
:10562000554B99423ED07B681B681946534B9942B3
:1056300036D07B681B681946514B99422ED07B6847
:105640001B6819464F4B994226D07B681B68194648
:105650004D4B99421DD07B681B6819464B4B9942B4
:1056600014D07B681B681946494B99420BD07B6864
:105670001B681946474B994202D14FF480331AE018
:105680004FF4800317E04FF4803314E04FF480337D
:1056900011E04FF480330EE040230CE040230AE099
:1056A000402308E0402306E03B4B04E03A4B02E095
:1056B000394B00E0384B1340002B14BF012300236B
:1056C000DBB290E0364B1A687B681B681946264BA4
:1056D000994200F081807B681B681946234B9942F0
:1056E00078D07B681B681946214B994270D07B6843
:1056F0001B6819461F4B994268D07B681B68194686
:105700001D4B994260D07B681B6819461B4B994220
:1057100058D07B681B681946194B994250D07B685A
:105720001B681946174B994248D07B681B6819467D
:10573000154B99423FD07B681B681946134B994221
:1057400036D07B681B681946114B99422DD07B6877
:105750001B6819460F4B994224D14FF480333CE02B
:10576000B8600240006402401060024010640240D1
:105770007060024070640240286002402864024069
:1057800088600240886402404060024040640240F9
:10579000A0600240A0640240010080005860024006
:1057A000006002404FF4800317E04FF4803314E0B0
:1057B0004FF4803311E04FF480330EE040230CE0CF
:1057C00040230AE0402308E0402306E07F4B04E04A
:1057D0007E4B02E07D4B00E07C4B1340002B14BF5E
:1057E00001230023DBB2002B00F01C827B681B68C6
:1057F0005B6903F08003002B00F014827B681B6858
:105800007A681268526922F080025A617B681B68CC
:105810001A466F4B9A4268D96E4A7B681B681946D4
:105820006D4B99425ED07B681B6819466B4B994261
:1058300056D07B681B681946694B99424ED07B68ED
:105840001B681946674B994246D07B681B6819460E
:10585000654B99423ED07B681B681946634B994261
:1058600036D07B681B681946614B99422ED07B6805
:105870001B6819465F4B994226D07B681B68194606
:105880005D4B99421DD07B681B6819465B4B994262
:1058900014D07B681B681946594B99420BD07B6822
:1058A0001B681946574B994202D14FF480331AE0D6
:1058B0004FF4800317E04FF4803314E04FF480334B
:1058C00011E04FF480330EE040230CE040230AE067
:1058D000402308E0402306E03C4B04E03B4B02E061
:1058E0003A4B00E0394BD36086E17B681B681A466F
:1058F000454B9A4240F28A80364A7B681B681946BB
:10590000354B99425ED07B681B681946334B9942F0
:1059100056D07B681B681946314B99424ED07B6844
:105920001B6819462F4B994246D07B681B68194665
:105930002D4B99423ED07B681B6819462B4B9942F0
:1059400036D07B681B681946294B99422ED07B685C
:105950001B681946274B994226D07B681B6819465D
:10596000254B99421DD07B681B681946234B9942F1
:1059700014D07B681B681946214B99420BD07B6879
:105980001B6819461F4B994202D14FF480331AE02D
:105990004FF4800317E04FF4803314E04FF480336A
:1059A00011E04FF480330EE040230CE040230AE086
:1059B000402308E0402306E0044B04E0034B02E0F0
:1059C000024B00E0014B936016E100BF0100800034
:1059D00058640240006402401060024010640240BB
:1059E00070600240706402402860024028640240F7
:1059F0008860024088640240406002404064024087
:105A0000A0600240A0640240B86002407B681B684E
:105A10001A46694B9A4268D9684A7B681B681946DE
:105A2000674B99425ED07B681B681946654B99426B
:105A300056D07B681B681946634B99424ED07B68F1
:105A40001B681946614B994246D07B681B68194612
:105A50005F4B99423ED07B681B6819465D4B99426B
:105A600036D07B681B6819465B4B99422ED07B6809
:105A70001B681946594B994226D07B681B6819460A
:105A8000574B99421DD07B681B681946554B99426C
:105A900014D07B681B681946534B99420BD07B6826
:105AA0001B681946514B994202D14FF480331AE0DA
:105AB0004FF4800317E04FF4803314E04FF4803349
:105AC00011E04FF480330EE040230CE040230AE065
:105AD000402308E0402306E0454B04E0444B02E04D
