:020000040800F2
:1000000000000220E90C0008390D0008390D000835
:10001000390D0008390D0008390D000800000000F6
:10002000000000000000000000000000390D000882
:10003000390D000800000000390D0008390D0008D6
:10004000390D0008390D0008390D0008390D000878
:10005000390D0008390D0008390D0008390D000868
:10006000390D0008390D0008390D0008390D000858
:10007000390D0008390D0008390D0008390D000848
:10008000390D0008390D0008390D0008390D000838
:10009000390D0008390D0008390D0008390D000828
:1000A000390D0008390D0008390D0008390D000818
:1000B000390D0008390D0008390D0008390D000808
:1000C000390D0008390D0008390D0008390D0008F8
:1000D000390D0008390D0008390D0008390D0008E8
:1000E000390D0008390D0008390D0008390D0008D8
:1000F000390D0008390D0008390D0008390D0008C8
:10010000390D0008390D0008390D0008390D0008B7
:10011000390D0008390D0008390D0008390D0008A7
:10012000390D0008390D0008390D0008390D000897
:10013000390D00080000000000000000390D000823
:10014000390D0008390D0008390D0008390D000877
:10015000390D0008390D0008390D0008390D000867
:10016000390D0008390D0008390D0008390D000857
:10017000390D0008390D00080000000000000000E3
:10018000390D0008390D000810B5054C237833B936
:10019000044B13B10448AFF300800123237010BD5A
:1001A0005004002000000000B4210008084B10B5E6
:1001B0001BB108480849AFF300800848036803B939
:1001C00010BD074B002BFBD0BDE81040184700BF07
:1001D00000000000B4210008540400204C0400205A
:1001E0000000000080B487B000AF78603960002361
:1001F000FB600023BB6000233B6100237B616BE15C
:100200007B69012202FA03F3FB603B681A68FB6812
:100210001340BB60BA68FB689A4240F05A813B6861
:100220005B68022B03D03B685B68122B22D17B6991
:10023000DA087B68083253F822303B617B6903F0AF
:1002400007039B001A460F239340DB433A69134090
:100250003B613B681B697A6902F007029200934098
:100260003A6913433B617B69DA087B680832396974
:1002700043F822107B681B683B617B695B001A4670
:1002800003239340DB433A6913403B613B685B685F
:1002900003F003037A69520093403A6913433B61C8
:1002A0007B683A691A603B685B68012B0BD03B683E
:1002B0005B68022B07D03B685B68112B03D03B685F
:1002C0005B68122B2FD17B689B683B617B695B006D
:1002D0001A4603239340DB433A6913403B613B6872
:1002E000DB687A69520093403A6913433B617B684B
:1002F0003A699A607B685B683B617B69012202FA1C
:1003000003F3DB433A6913403B613B685B6803F0EE
:1003100010031A097B6902FA03F33A6913433B613C
:100320007B683A695A607B68DB683B617B695B008C
:100330001A4603239340DB433A6913403B613B6811
:100340009B687A69520093403A6913433B617B682A
:100350003A69DA603B685B6803F08053002B00F079
:10036000B880624A614B5B6C43F480435364604ADB
:100370007B699B08023352F823303B617B6903F0B1
:1003800003039B001A460F239340DB433A69134053
:100390003B617B68574A934237D07B68564A934209
:1003A00031D07B68554A93422BD07B68544A9342A4
:1003B00025D07B68534A93421FD07B68524A9342B0
:1003C00019D07B68514A934213D07B68504A9342BC
:1003D0000DD07B684F4A934207D07B684E4A9342C8
:1003E00001D1092312E00A2310E008230EE00723BD
:1003F0000CE006230AE0052308E0042306E00323BB
:1004000004E0022302E0012300E000237A6902F005
:100410000302920093403A6913433B6134497B697C
:100420009B0802333A6941F823203C4B1B683B612F
:10043000BB68DB433A6913403B613B685B6803F48C
:100440008033002B03D03A69BB6813433B61334AC6
:100450003B691360314B5B683B61BB68DB433A69C6
:1004600013403B613B685B6803F40033002B03D00F
:100470003A69BB6813433B61284A3B695360274B89
:100480009B683B61BB68DB433A6913403B613B6857
:100490005B6803F48013002B03D03A69BB681343F5
:1004A0003B611E4A3B6993601C4BDB683B61BB6848
:1004B000DB433A6913403B613B685B6803F400131C
:1004C000002B03D03A69BB6813433B61134A3B6975
:1004D000D3607B6901337B617B690F2B7FF690AE24
:1004E0001C37BD465DF8047B704700BF00380240F2
:1004F00000380140000002400004024000080240B1
:10050000000C02400010024000140240001802409B
:10051000001C02400020024000240240003C014038
:1005200080B487B000AF7860396000233B6100235E
:10053000FB600023BB6000237B6182E07B690122BA
:1005400002FA03F33B613A683B691340FB60FA68C7
:100550003B699A4272D17B681A687B695B001946D5
:1005600003238B40DB431A407B681A607B69DA08FF
:100570007B69D9087B68083153F821107B6903F047
:1005800007039B0018460F238340DB4319407B6819
:10059000083243F822107B689A687B695B00194631
:1005A00003238B40DB431A407B689A607B685A6860
:1005B0007B69012101FA03F3DB431A407B685A602F
:1005C0007B68DA687B695B00194603238B40DB4359
:1005D0001A407B68DA607B6903F003039B001A46CC
:1005E0000F239340BB601B487B699B0819497A69BC
:1005F0009208023251F82210BA68D2430A400233FC
:1006000040F823201449144B1A68FB68DB4313405D
:100610000B601149104B5A68FB68DB4313404B6079
:100620000D490D4B9A68FB68DB4313408B600A4908
:10063000094BDA68FB68DB431340CB607B6901330D
:100640007B617B690F2B7FF679AF1C37BD465DF868
:10065000047B704700380140003C014080B485B005
:1006600000AF78600B467B807B681A697B881340FB
:10067000002B02D00123FB7301E00023FB73FB7B03
:1006800018461437BD465DF8047B704780B483B0CC
:1006900000AF78600B467B8013467B707B78002B25
:1006A00003D07B687A881A8302E07B687A885A8351
:1006B0000C37BD465DF8047B704700BF80B483B043
:1006C00000AF78600B467B807B685A697B885A4014
:1006D0007B685A610C37BD465DF8047B704700BFEC
:1006E00080B485B000AF78600B467B804FF48033D8
:1006F000FB607A88FB681343FB60FA687B68DA6109
:100700007A887B68DA61FA687B68DA617B68DB6922
:10071000FB607B68DB6903F48033002B01D000238E
:1007200000E0012318461437BD465DF8047B70478E
:1007300080B582B000AF0346FB80084B5A69FB8846
:100740001340002B06D0054AFB885361FB881846EE
:1007500000F006F80837BD4680BD00BF003C0140F0
:1007600080B483B000AF0346FB800C37BD465DF814
:10077000047B704780B400AFBD465DF8047B7047D2
:1007800080B400AFBD465DF8047B704780B400AF15
:10079000BD465DF8047B704780B400AFBD465DF890
:1007A000047B704780B485B000AF78607B6803F04D
:1007B0000703FB600C4BDB68BB60BA684FF6FF03B6
:1007C0001340BB60FB681A02BB68134343F0BF636E
:1007D00043F40033BB60044ABB68D3601437BD46A2
:1007E0005DF8047B704700BF00ED00E080B400AF0F
:1007F000044BDB6803F4E0631B0A1846BD465DF852
:10080000047B704700ED00E080B483B000AF034686
:10081000FB71084997F907305B09FA7902F01F026A
:10082000012000FA02F241F823200C37BD465DF8A2
:10083000047B704700E100E080B483B000AF034662
:10084000FB71094997F907305B09FA7902F01F0239
:10085000012000FA02F2203341F823200C37BD4674
:100860005DF8047B704700BF00E100E080B483B016
:1008700000AF0346FB710C4A97F907305B09403320
:1008800052F82330FA7902F01F02012101FA02F234
:100890001340002B01D0012300E0002318460C3741
:1008A000BD465DF8047B704700E100E080B483B092
:1008B00000AF0346FB71094997F907305B09FA79E4
:1008C00002F01F02012000FA02F2403341F8232017
:1008D0000C37BD465DF8047B704700BF00E100E0C7
:1008E00080B483B000AF0346FB71094997F9073024
:1008F0005B09FA7902F01F02012000FA02F260336C
:1009000041F823200C37BD465DF8047B704700BFDB
:1009100000E100E080B483B000AF0346FB710C4AF5
:1009200097F907305B09803352F82330FA7902F0E7
:100930001F02012101FA02F21340002B01D0012312
:1009400000E0002318460C37BD465DF8047B704775
:1009500000E100E080B483B000AF03463960FB7172
:1009600097F90730002B0BDA0D49FB7903F00F03E1
:10097000043B3A68D2B21201D2B20B441A7609E0B3
:10098000084997F907303A68D2B21201D2B20B4443
:1009900083F800230C37BD465DF8047B704700BF29
:1009A00000ED00E000E100E080B483B000AF03465A
:1009B000FB7197F90730002B0ADA0D4AFB7903F037
:1009C0000F03043B13441B7EDBB21B09DBB208E0C0
:1009D000084A97F90730134493F80033DBB21B0938
:1009E000DBB218460C37BD465DF8047B704700BF8C
:1009F00000ED00E000E100E080B489B000AFF860F5
:100A0000B9607A60FB6803F00703FB61FB69C3F11F
:100A10000703042B28BF0423BB61FB690433062BA7
:100A200002D9FB69033B00E000237B61BB69012223
:100A300002FA03F3013B1A46BB681A407B699A40ED
:100A40007B69012101FA03F3013B19467B680B40E6
:100A5000134318462437BD465DF8047B704700BF3A
:100A600080B489B000AFF860B9607A603B60BB6861
:100A700003F00703FB61FB69C3F10703042B28BFE5
:100A80000423BB61FB690433062B02D9FB69033BDA
:100A900000E000237B617B69FA6822FA03F3BA69FC
:100AA000012101FA02F2013A1A407B681A607B695F
:100AB000012202FA03F3013B1A46FB681A403B6825
:100AC0001A602437BD465DF8047B704780B400AFE0
:100AD000BFF34F8F0549054BDB6803F4E062044B1D
:100AE0001343CB60BFF34F8FFEE700BF00ED00E084
:100AF0000400FA0580B582B000AF78607B68013BE6
:100B0000B3F1807F01D301230FE00A4A7B68013BE8
:100B100053604FF0FF300F21FFF71CFF054B002201
:100B20009A60044B07221A60002318460837BD4616
:100B300080BD00BF10E000E080B582B000AF7860FB
:100B40007868FFF72FFE0837BD4680BD80B586B0B8
:100B500000AF0346B9607A60FB7300237B61FFF747
:100B600045FE78617869B9687A68FFF745FF024603
:100B700097F90F3018461146FFF7ECFE1837BD46BF
:100B800080BD00BF80B582B000AF0346FB7197F90E
:100B900007301846FFF738FE0837BD4680BD00BF56
:100BA00080B582B000AF0346FB7197F90730184655
:100BB000FFF742FE0837BD4680BD00BF80B500AFDD
:100BC000FFF784FF80BD00BF80B582B000AF7860C2
:100BD0007868FFF78FFF034618460837BD4680BD8B
:100BE00080B500AFFFF702FE0346184680BD00BF88
:100BF00080B584B000AFB9607A603B600346FB7398
:100C000097F90F301846FFF7CFFE03461846B9682C
:100C10007A683B68FFF724FF1037BD4680BD00BFF0
:100C200080B582B000AF0346FB7197F907301846D4
:100C3000FFF73CFE0837BD4680BD00BF80B582B0DF
:100C400000AF0346FB7197F907301846FFF70EFE19
:100C5000034618460837BD4680BD00BF80B582B048
:100C600000AF0346FB7197F907301846FFF738FECF
:100C70000837BD4680BD00BF80B582B000AF0346D7
:100C8000FB7197F907301846FFF744FE03461846F4
:100C90000837BD4680BD00BF80B483B000AF786028
:100CA0007B68042B06D1094A084B1B6843F00403F8
:100CB000136005E0054A054B1B6823F0040313602D
:100CC0000C37BD465DF8047B704700BF10E000E0C4
:100CD00080B500AF00F002F880BD00BF80B400AF67
:100CE000BD465DF8047B7047DFF834D0002103E097
:100CF0000C4B5B58435004310B480C4B42189A4242
:100D0000F6D30B4A02E0002342F8043B094B9A4217
:100D1000F9D301F021F801F095F900F00FF87047D0
:100D200000000220B4210008000000205004002030
:100D30005004002070040020FEE7000080B582B05F
:100D400000AF01F0B3F800F0DDFD0246164BA3FB47
:100D500002239B093B603B684FF47A7202FB03F36A
:100D60007B600020012101F0DFF800BF7B685A1E84
:100D70007A60002BFAD10120012101F0D5F800BFE3
:100D80007B685A1E7A60002BFAD10220012101F003
:100D9000CBF800BF7B685A1E7A60002BFAD1032083
:100DA000012101F0C1F8FEE7D34D621080B500AF1C
:100DB0000E4A0E4B1B6843F4007313600B4A0B4B37
:100DC0001B6843F480631360084A084B1B6843F4B4
:100DD000807313600320FFF7AFFE0F2000F040F890
:100DE000FFF7C8FC0023184680BD00BF003C02404E
:100DF00080B500AF134B4FF0FF321A62114B002247
:100E00001A62104B4FF0FF325A620E4B00225A62A8
:100E10000C4B4FF0FF321A610A4B00221A61094B4A
:100E20004FF0FF325A61074B00225A61054B4FF0D9
:100E3000FF329A61034B00229A61FFF7A1FC002365
:100E4000184680BD0038024080B400AFBD465DF852
:100E5000047B704780B400AFBD465DF8047B7047EB
:100E600080B582B000AF786000F0E8FD0246094B23
:100E7000A3FB02239B091846FFF7A6FE4FF0FF30A5
:100E800079680022FFF762FE002318460837BD4646
:100E900080BD00BFD34D621080B400AF044B1B680F
:100EA0000133034A1360BD465DF8047B704700BF01
:100EB0006C04002080B400AF034B1B681846BD468D
:100EC0005DF8047B704700BF6C04002080B584B0DF
:100ED00000AF78600023FB60FFF7ECFFF86000BF15
:100EE000FFF7E8FF0246FB68D21A7B689A42F7D305
:100EF0001037BD4680BD00BF80B400AF044A044B2C
:100F00001B6823F002031360BD465DF8047B704745
:100F100010E000E080B400AF044A044B1B6843F0CB
:100F200002031360BD465DF8047B704710E000E0EB
:100F300080B400AF024B1846BD465DF8047B704795
:100F40000000010180B400AF034B1B681B0C184666
:100F5000BD465DF8047B7047002004E080B400AF1C
:100F6000044B1B68C3F30B031846BD465DF8047BB6
:100F7000704700BF002004E080B400AF044A044B77
:100F80005B6843F001035360BD465DF8047B704726
:100F9000002004E080B400AF044A044B5B6823F0F7
:100FA00001035360BD465DF8047B7047002004E0F8
:100FB00080B400AF044A044B5B6843F00203536003
:100FC000BD465DF8047B7047002004E080B400AFAC
:100FD000044A044B5B6823F002035360BD465DF88E
:100FE000047B7047002004E080B400AF044A044B47
:100FF0005B6843F004035360BD465DF8047B7047B3
:10100000002004E080B400AF044A044B5B6823F086
:1010100004035360BD465DF8047B7047002004E084
:1010200080B400AF034B01221A60BD465DF8047B1B
:10103000704700BF0004274280B400AF034B00227A
:101040001A60BD465DF8047B704700BF000427426C
:1010500080B400AF1A4A1A4B1B6843F08103136037
:10106000174B00229A60164A154B1B6823F0A163A8
:1010700023F480331360124B00225A601049104B46
:101080005A68104B13434B600D4B0022C3F8842069
:101090000B4A0B4BD3F8843043F0005343F44053D6
:1010A000C2F88430064A064B1B6823F48023136081
:1010B000034B0022DA60BD465DF8047B704700BF39
:1010C000003802401030000480B598B000AF78605E
:1010D0000023FB657B681B6803F00103002B6AD0CB
:1010E000A34B9B6803F00C03042B0BD0A04B9B6815
:1010F00003F00C03082B12D19D4B5B6803F48003B3
:10110000002B0CD09A4B1B6803F40033002B05D046
:101110007B685B68012B01D0012320E24BE0954BFB
:1011200000221A70FFF7C6FEF8650AE0FFF7C2FE5C
:101130000246FB6DD31A41F28832934201D9032350
:101140000DE28B4B1B6803F40033002BEED1894A70
:101150007B685B68DBB213707B685B68012B15D121
:10116000FFF7A8FEF8650AE0FFF7A4FE0246FB6D54
:10117000D31A41F28832934201D90323EFE17C4B29
:101180001B6803F40033002BEED014E0FFF792FE4F
:10119000F8650AE0FFF78EFE0246FB6DD31A41F2B6
:1011A0008832934201D90323D9E1714B1B6803F4C0
:1011B0000033002BEED17B681B6803F00203002B89
:1011C0007FD06B4B9B6803F00C03002B0BD0684B5C
:1011D0009B6803F00C03082B2AD1654B5B6803F472
:1011E0008003002B24D1624B1B6803F00203002B09
:1011F00005D07B68DB68012B01D00123AFE15C489F
:101200005B4B1B6823F0F8027B681B69F821B9650A
:10121000B96D91FAA1F17965796D3965396DB1FAD8
:1012200081F1F964F96CC9B28B401343036048E063
:101230007B68DB68002B2ED04F4B01221A60FFF732
:1012400039FEF86508E0FFF735FE0246FB6DD31A5C
:10125000642B01D9032382E1454B1B6803F0020391
:10126000002BF0D04248424B1B6823F0F8027B6809
:101270001B69F821B964B96C91FAA1F17964796CB0
:101280003964396CB1FA81F1F963F96BC9B28B40F9
:101290001343036015E0384B00221A60FFF70AFE83
:1012A000F86508E0FFF706FE0246FB6DD31A642BD3
:1012B00001D9032353E12E4B1B6803F00203002BDB
:1012C000F0D17B681B6803F00803002B30D07B68EB
:1012D0005B69002B16D0294B01221A60FFF7EAFD4B
:1012E000F86508E0FFF7E6FD0246FB6DD31A642BB4
:1012F00001D9032333E11E4B5B6F03F00203002B84
:10130000F0D015E01D4B00221A60FFF7D3FDF86501
:1013100008E0FFF7CFFD0246FB6DD31A642B01D91D
:1013200003231CE1124B5B6F03F00203002BF0D18F
:101330007B681B6803F00403002B75D00C4A0C4B30
:101340001B6C43F0805313640D4A0D4B1B6843F430
:1013500080731360FFF7AEFDF86513E0FFF7AAFD99
:101360000246FB6DD31A642B0CD90323F7E000BFB0
:10137000003802400238024000004742800E4742D7
:1013800000700040784B1B6803F48073002BE5D09D
:10139000764B00221A70FFF78DFDF8650AE0FFF723
:1013A00089FD0246FB6DD31A41F28832934201D97E
:1013B0000323D4E06E4B1B6F03F00203002BEED12E
:1013C0006A4A7B689B68DBB213707B689B68012B61
:1013D00015D1FFF76FFDF8650AE0FFF76BFD0246D8
:1013E000FB6DD31A41F28832934201D90323B6E050
:1013F0005F4B1B6F03F00203002BEED014E0FFF7EE
:1014000059FDF8650AE0FFF755FD0246FB6DD31A5A
:1014100041F28832934201D90323A0E0544B1B6F61
:1014200003F00203002BEED17B689B69002B00F0D8
:1014300095804F4B9B6803F00C03082B00F08C80C9
:101440007B689B69022B70D14A4B00221A60FFF720
:1014500031FDF86508E0FFF72DFD0246FB6DD31A5C
:10146000642B01D903237AE0414B1B6803F000731E
:10147000002BF0D13E487B681A6A7B685B6A47F6AE
:10148000C071B963B96B91FAA1F17963796B396372
:10149000396BB1FA81F1F962F96AC9B28B401A432A
:1014A0007B689B6A5B08013B4FF44031B962B96AC3
:1014B00091FAA1F17962796A3962396AB1FA81F1F6
:1014C000F961F969C9B28B401A437B68DB691A4339
:1014D0007B68DB6A4FF07061B961B96991FAA1F17B
:1014E0007961796939613969B1FA81F1F960F9682D
:1014F000C9B28B40134343F0005343601D4B01229C
:101500001A60FFF7D7FCF86508E0FFF7D3FC024646
:10151000FB6DD31A642B01D9032320E0144B1B6805
:1015200003F00073002BF0D018E0124B00221A6079
:10153000FFF7C0FCF86508E0FFF7BCFC0246FB6D56
:10154000D31A642B01D9032309E0094B1B6803F06C
:101550000073002BF0D101E0012300E000231846C6
:101560006037BD4680BD00BF00700040703802404B
:10157000003802406000474280B584B000AF786018
:1015800039600023FB60A64B1B6803F00F023B6829
:101590009A4280F09080A24B3A68D2B21A70A04B67
:1015A0001B6803F00F023B689A4201D0012333E12C
:1015B0007B681B6803F00203002B08D09949994B04
:1015C0009B6823F0F0027B689B6813438B607B6809
:1015D0001B6803F00103002B00F0FB807B685B6855
:1015E000012B07D18F4B1B6803F40033002B15D15F
:1015F000012311E17B685B68022B07D1894B1B68D3
:1016000003F00073002B09D1012305E1854B1B6812
:1016100003F00203002B01D10123FDE08149814B3E
:101620009B6823F003027B685B6813438B60FFF7C2
:1016300041FCF8607B685B68012B12D10AE0FFF780
:1016400039FC0246FB68D31A41F28832934201D931
:101650000323E1E0734B9B6803F00C03042BEED1F2
:10166000B7E07B685B68022B12D10AE0FFF722FC2F
:101670000246FB68D31A41F28832934201D9032310
:10168000CAE0684B9B6803F00C03082BEED1A0E086
:101690000AE0FFF70FFC0246FB68D31A41F28832DA
:1016A000934201D90323B7E05E4B9B6803F00C0320
:1016B000002BEED18DE07B681B6803F00203002B4A
:1016C00008D05849574B9B6823F0F0027B689B6811
:1016D00013438B607B681B6803F00103002B6BD006
:1016E0007B685B68012B07D14E4B1B6803F400330A
:1016F000002B15D101238FE07B685B68022B07D19B
:10170000484B1B6803F00073002B09D1012383E0D1
:10171000444B1B6803F00203002B01D101237BE043
:101720004049404B9B6823F003027B685B6813438E
:101730008B60FFF7BFFBF8607B685B68012B12D101
:101740000AE0FFF7B7FB0246FB68D31A41F2883282
:10175000934201D903235FE0324B9B6803F00C03F3
:10176000042BEED128E07B685B68022B12D10AE0E3
:10177000FFF7A0FB0246FB68D31A41F2883293427E
:1017800001D9032348E0274B9B6803F00C03082B87
:10179000EED111E00AE0FFF78DFB0246FB68D31A99
:1017A00041F28832934201D9032335E01D4B9B68F7
:1017B00003F00C03002BEED1194B3A68D2B21A7029
:1017C000174B1B6803F00F023B689A4201D00123BC
:1017D00022E07B681B6803F00403002B08D011494A
:1017E000104B9B6823F4E0527B68DB6813438B60EB
:1017F0007B681B6803F00803002B09D00949094BDB
:101800009B6823F460427B681B69DB0013438B6099
:101810000F20FFF725FB002318461037BD4680BD7B
:10182000003C02400038024080B58AB000AFF8604A
:10183000B9607A60FB68002B21D1234A224B1B6BD5
:1018400043F0010313634FF480737B610223BB6198
:1018500003233B620023FB6100237B6207F1140337
:101860001A481946FEF7BEFC1748174B9B6823F031
:10187000EC62B9687B680B431343836021E0124A32
:10188000114B1B6B43F0040313634FF400737B6134
:101890000223BB6103233B620023FB6100237B62C5
:1018A00007F114030A481946FEF79CFC0648064B4C
:1018B0009B6823F078427B68D900BB680B431343D5
:1018C00083602837BD4680BD0038024000000240DA
:1018D0000008024080B400AF034B01221A60BD46ED
:1018E0005DF8047B704700BF4C00474280B400AFF6
:1018F000034B00221A60BD465DF8047B704700BFB1
:101900004C00474280B495B000AF00237B640023B5
:10191000FB6400233B640023BB64454B9B6803F0DE
:101920000C03042B06D0082B07D0002B76D1414B9B
:10193000BB6476E0404BBB6473E03D4B5B6803F0F7
:101940003F037B643A4B5B6803F480034FF48002EF
:10195000FA63FA6B92FAA2F2BA63BA6B7A637A6BA1
:10196000B2FA82F23A633A6BD2B2D340002B1CD067
:10197000314A7B6CB2FBF3F22D4B596847F6C073CA
:101980000B4047F6C071F962F96A91FAA1F1B962A8
:10199000B96A7962796AB1FA81F13962396AC9B290
:1019A000CB4003FB02F3FB641BE0224A7B6CB2FBDF
:1019B000F3F21F4B596847F6C0730B4047F6C071EE
:1019C000F961F96991FAA1F1B961B9697961796946
:1019D000B1FA81F139613969C9B2CB4003FB02F335
:1019E000FB64134B5B6803F440334FF44032FA60FE
:1019F000FA6892FAA2F2BA60BA687A607A68B2FAC1
:101A000082F23A603A68D2B2D34001335B003B6461
:101A1000FA6C3B6CB2FBF3F3BB6402E0054BBB64B6
:101A200000BFBB6C18465437BD465DF8047B704759
:101A3000003802400024F40040787D0180B584B075
:101A400000AFFFF75FFF01460F4B9B6803F0F00309
:101A5000F022FA60FA6892FAA2F2BA60BA687A6082
:101A60007A68B2FA82F23A603A68D2B2D340074A50
:101A7000D35C21FA03F3064A1360054B1B68184632
:101A80001037BD4680BD00BF003802409C210008D1
:101A90000000002080B584B000AFFFF7CFFF014603
:101AA0000D4B9B6803F4E0534FF4E052FA60FA6880
:101AB00092FAA2F2BA60BA687A607A68B2FA82F2EE
:101AC0003A603A68D2B2D340044AD35C21FA03F3B5
:101AD00018461037BD4680BD003802409C210008E2
:101AE00080B584B000AFFFF7A9FF01460D4B9B689E
:101AF00003F460434FF46042FA60FA6892FAA2F28B
:101B0000BA60BA687A607A68B2FA82F23A603A6881
:101B1000D2B2D340044AD35C21FA03F318461037FB
:101B2000BD4680BD003802409C21000880B493B0BF
:101B300000AF78607B680F221A60624B1B6803F469
:101B40008023002B03D07B6805225A600CE05D4B9C
:101B50001B6803F48033002B03D07B6801225A609A
:101B600002E07B6800225A60564B1B6803F00103B9
:101B7000002B03D07B680122DA6002E07B68002240
:101B8000DA60504B1B6803F0F803F8227A647A6C31
:101B900092FAA2F23A643A6CFA63FA6BB2FA82F2FF
:101BA000BA63BA6BD2B223FA02F27B681A61454B70
:101BB0001B6F03F00403002B03D07B6805229A609F
:101BC0000CE0404B1B6F03F00103002B03D07B683C
:101BD00001229A6002E07B6800229A60394B5B6FB9
:101BE00003F00103002B03D07B6801225A6102E05D
:101BF0007B6800225A61334B1B6803F08073002B13
:101C000003D07B6802229A6102E07B6801229A611C
:101C10002C4B5B6803F480027B68DA61294B5B68BC
:101C200003F03F027B681A62264B5A6847F6C0737E
:101C3000134047F6C0727A637A6B92FAA2F23A6363
:101C40003A6BFA62FA6AB2FA82F2BA62BA6AD2B24B
:101C500023FA02F27B685A621A4B5B6803F4403342
:101C600003F580335B004FF440327A627A6A92FA6D
:101C7000A2F23A623A6AFA61FA69B2FA82F2BA6197
:101C8000BA69D2B223FA02F27B689A620D4B5B68A2
:101C900003F070634FF070627A617A6992FAA2F28F
:101CA0003A613A69FA60FA68B2FA82F2BA60BA68DE
:101CB000D2B223FA02F27B68DA624C37BD465DF895
:101CC000047B70470038024080B483B000AF786076
:101CD00039607B680F221A60114B9B6803F0030286
:101CE0007B685A600E4B9B6803F0F0027B689A6039
:101CF0000B4B9B6803F4E0527B68DA60084B9B68EF
:101D000003F46043DA087B681A61064B1B6803F032
:101D10000F023B681A600C37BD465DF8047B7047C4
:101D200000380240003C024080B500AF054BDB6844
:101D300003F08003002B04D000F008F8024B80224F
:101D40001A7080BD003802400E38024080B400AFE7
:101D5000BD465DF8047B704780B400AF124A124B59
:101D60001B6843F0010313600F4B00229A600E4A78
:101D70000D4B1B6823F0847323F4803313600A4BEC
:101D80000A4A5A60084A084B1B6823F480231360F0
:101D9000054B0022DA60064B4FF000629A60BD46A8
:101DA0005DF8047B704700BF00380240103000240B
:101DB00000ED00E080B487B000AF00233B6100235A
:101DC0007B610223FB600023BB6002237B60324BFC
:101DD0009B6803F00C033B613B69042B07D0082B85
:101DE00009D0002B3FD12D4B2D4A1A603FE02B4BE1
:101DF0002C4A1A603BE0284B5B6803F480039B0D80
:101E0000BB60254B5B6803F03F037B60BB68002B26
:101E10000DD0244A7B68B2FBF3F21F4B596847F69A
:101E2000C0730B409B0903FB02F37B610CE01C4A6F
:101E30007B68B2FBF3F2184B596847F6C0730B404E
:101E40009B0903FB02F37B61134B5B6803F4403394
:101E50001B0C01335B00FB607A69FB68B2FBF3F398
:101E60000E4A136003E00D4B0D4A1A6000BF0A4B87
:101E70009B6803F0F0031B090B4AD35CDBB23B61A8
:101E8000064B1A683B6922FA03F3044A13601C37B5
:101E9000BD465DF8047B704700380240000000201A
:101EA0000024F40040787D010400002080B586B055
:101EB00000AF1A4A194B1B6B43F001031363174A17
:101EC000164B1B6B43F0020313630123BB6000231B
:101ED000FB6001233B614FF400637B603B1D1048B6
:101EE0001946FEF77FF94FF480637B603B1D0C4879
:101EF0001946FEF777F920237B603B1D09481946F8
:101F0000FEF770F940237B603B1D06481946FEF73B
:101F100069F900BF1837BD4680BD00BF00380240D8
:101F2000000402400000024080B582B000AF78603B
:101F300039607B68032B4BD801A252F823F000BF15
:101F4000511F0008731F0008951F0008B31F0008E9
:101F50003B68002B06D020484FF400610122FEF7B9
:101F600095FB34E01C484FF400610022FEF78EFB25
:101F70002DE03B68002B06D017484FF4806101220A
:101F8000FEF784FB23E014484FF480610022FEF743
:101F90007DFB1CE03B68002B05D01048202101226E
:101FA000FEF774FB13E00D4820210022FEF76EFBC4
:101FB0000DE03B68002B05D0084840210122FEF7C8
:101FC00065FB04E0054840210022FEF75FFB00BFEF
:101FD00000BF0837BD4680BD00040240000002403B
:101FE00080B582B000AF78607B68032B21D801A256
:101FF00052F823F005200008112000081D200008D9
:10200000272000080D484FF40061FEF757FB0FE052
:102010000A484FF48061FEF751FB09E0084820218F
:10202000FEF74CFB04E006484021FEF747FB00BFEB
:1020300000BF00BF0837BD4680BD00BF000402409E
:102040000000024070B50F4E0F4D761BB61018BF42
:10205000002405D0013455F8043B9847A642F9D135
:102060000A4E0B4D761B00F08DF8B61018BF0024F9
:1020700006D0013455F8043B9847A642F9D170BD0B
:1020800070BD00BF40040020400400204804002030
:1020900040040020024B13B1024800F005B870471D
:1020A00000000000B520000801460020024603465B
:1020B00000F016B838B5084B084DED1AAC1018BF33
:1020C000ED1805D0013C55F8043D9847002CF9D196
:1020D000BDE8384000F05CB8480400204C04002003
:1020E0002DE9F047254C2568D5F848410646884635
:1020F00092469946CCB360681F2818DC431C7EB119
:1021000004EB80050121C5F888A0D4F8887101FA94
:1021100000F21743022EC4F88871C5F808911ED04A
:102120000230636044F820800020BDE8F087144B43
:1021300003B34FF4C870AFF300800446D0B1D5F8B4
:102140004831002780E88800C5F848413846012317
:10215000C4F88871C4F88C71002EE1D0D0E7D4F8AF
:102160008C110A43C4F88C21DAE705F5A674C5F88A
:102170004841C0E74FF0FF30BDE8F087B0210008CC
:1021800000000000F8B500BFF8BC08BC9E467047D0
:10219000F8B500BFF8BC08BC9E46704700000000C0
:1021A00001020304010203040607080943000000BA
:0421B00018000020F3
:1021B4000024F400000000000000000001020304F9
:1021C40006070809000000000000000004030020C6
:1021D4006C030020D4030020000000000000000075
:1021E40000000000000000000000000000000000EB
:1021F400000000000000000000000000AC21000806
:1022040000000000000000000000000000000000CA
:1022140000000000000000000000000000000000BA
:1022240000000000000000000000000000000000AA
:10223400000000000000000000000000000000009A
:10224400000000000000000000000000000000008A
:10225400000000000000000000000000000000007A
:10226400000000000000000000000000000000006A
:1022740001000000000000000E33CDAB34126DE607
:10228400ECDE05000B000000000000000000000070
:10229400000000000000000000000000000000003A
:1022A400000000000000000000000000000000002A
:1022B400000000000000000000000000000000001A
:1022C400000000000000000000000000000000000A
:1025F40095200008AD0100088901000800000000D2
:0400000508000000EF
:00000001FF
